{
  "fileName": "SecretRegistry.sol",
  "contractName": "SecretRegistry",
  "source": "pragma solidity 0.6.4;\n\n/// @title SecretRegistry\n/// @notice SecretRegistry contract for registering secrets from Raiden Network\n/// clients.\ncontract SecretRegistry {\n    // sha256(secret) => block number at which the secret was revealed\n    mapping(bytes32 => uint256) private secrethash_to_block;\n\n    event SecretRevealed(bytes32 indexed secrethash, bytes32 secret);\n\n    /// @notice Registers a hash time lock secret and saves the block number.\n    /// This allows the lock to be unlocked after the expiration block\n    /// @param secret The secret used to lock the hash time lock\n    /// @return true if secret was registered, false if the secret was already\n    /// registered\n    function registerSecret(bytes32 secret) public returns (bool) {\n        bytes32 secrethash = sha256(abi.encodePacked(secret));\n        if (secrethash_to_block[secrethash] > 0) {\n            return false;\n        }\n        secrethash_to_block[secrethash] = block.number;\n        emit SecretRevealed(secrethash, secret);\n        return true;\n    }\n\n    /// @notice Registers multiple hash time lock secrets and saves the block\n    /// number\n    /// @param secrets The array of secrets to be registered\n    /// @return true if all secrets could be registered, false otherwise\n    function registerSecretBatch(bytes32[] memory secrets) public returns (bool) {\n        bool completeSuccess = true;\n        for(uint i = 0; i < secrets.length; i++) {\n            if(!registerSecret(secrets[i])) {\n                completeSuccess = false;\n            }\n        }\n        return completeSuccess;\n    }\n\n    /// @notice Get the stored block number at which the secret was revealed\n    /// @param secrethash The hash of the registered secret `keccak256(secret)`\n    /// @return The block number at which the secret was revealed\n    function getSecretRevealBlockHeight(bytes32 secrethash) public view returns (uint256) {\n        return secrethash_to_block[secrethash];\n    }\n}\n\n// MIT License\n\n// Copyright (c) 2018\n\n// Permission is hereby granted, free of charge, to any person obtaining a copy\n// of this software and associated documentation files (the \"Software\"), to deal\n// in the Software without restriction, including without limitation the rights\n// to use, copy, modify, merge, publish, distribute, sublicense, and/or sell\n// copies of the Software, and to permit persons to whom the Software is\n// furnished to do so, subject to the following conditions:\n\n// The above copyright notice and this permission notice shall be included in all\n// copies or substantial portions of the Software.\n\n// THE SOFTWARE IS PROVIDED \"AS IS\", WITHOUT WARRANTY OF ANY KIND, EXPRESS OR\n// IMPLIED, INCLUDING BUT NOT LIMITED TO THE WARRANTIES OF MERCHANTABILITY,\n// FITNESS FOR A PARTICULAR PURPOSE AND NONINFRINGEMENT. IN NO EVENT SHALL THE\n// AUTHORS OR COPYRIGHT HOLDERS BE LIABLE FOR ANY CLAIM, DAMAGES OR OTHER\n// LIABILITY, WHETHER IN AN ACTION OF CONTRACT, TORT OR OTHERWISE, ARISING FROM,\n// OUT OF OR IN CONNECTION WITH THE SOFTWARE OR THE USE OR OTHER DEALINGS IN THE\n// SOFTWARE.",
  "sourcePath": "contracts/SecretRegistry.sol",
  "abi": [
    {
      "anonymous": false,
      "inputs": [
        {
          "indexed": true,
          "internalType": "bytes32",
          "name": "secrethash",
          "type": "bytes32"
        },
        {
          "indexed": false,
          "internalType": "bytes32",
          "name": "secret",
          "type": "bytes32"
        }
      ],
      "name": "SecretRevealed",
      "type": "event"
    },
    {
      "inputs": [
        {
          "internalType": "bytes32",
          "name": "secrethash",
          "type": "bytes32"
        }
      ],
      "name": "getSecretRevealBlockHeight",
      "outputs": [
        {
          "internalType": "uint256",
          "name": "",
          "type": "uint256"
        }
      ],
      "stateMutability": "view",
      "type": "function"
    },
    {
      "inputs": [
        {
          "internalType": "bytes32",
          "name": "secret",
          "type": "bytes32"
        }
      ],
      "name": "registerSecret",
      "outputs": [
        {
          "internalType": "bool",
          "name": "",
          "type": "bool"
        }
      ],
      "stateMutability": "nonpayable",
      "type": "function"
    },
    {
      "inputs": [
        {
          "internalType": "bytes32[]",
          "name": "secrets",
          "type": "bytes32[]"
        }
      ],
      "name": "registerSecretBatch",
      "outputs": [
        {
          "internalType": "bool",
          "name": "",
          "type": "bool"
        }
      ],
      "stateMutability": "nonpayable",
      "type": "function"
    }
  ],
  "bytecode": "0x608060405234801561001057600080fd5b50610383806100206000396000f3fe608060405234801561001057600080fd5b50600436106100415760003560e01c806312ad8bfc14610046578063bbe8a9b61461008c578063c1f629461461015c575b600080fd5b6100726004803603602081101561005c57600080fd5b810190808035906020019092919050505061019e565b604051808215151515815260200191505060405180910390f35b610142600480360360208110156100a257600080fd5b81019080803590602001906401000000008111156100bf57600080fd5b8201836020820111156100d157600080fd5b803590602001918460208302840111640100000000831117156100f357600080fd5b919080806020026020016040519081016040528093929190818152602001838360200280828437600081840152601f19601f8201169050808301925050505050505091929192905050506102df565b604051808215151515815260200191505060405180910390f35b6101886004803603602081101561017257600080fd5b8101908080359060200190929190505050610331565b6040518082815260200191505060405180910390f35b600080600283604051602001808281526020019150506040516020818303038152906040526040518082805190602001908083835b602083106101f657805182526020820191506020810190506020830392506101d3565b6001836020036101000a038019825116818451168082178552505050505050905001915050602060405180830381855afa158015610238573d6000803e3d6000fd5b5050506040513d602081101561024d57600080fd5b8101908080519060200190929190505050905060008060008381526020019081526020016000205411156102855760009150506102da565b4360008083815260200190815260200160002081905550807fc8ee7ba45d0c5351df845eda156d523bd6865844a5f2c69df35b757e2f794fa1846040518082815260200191505060405180910390a260019150505b919050565b6000806001905060008090505b83518110156103275761031184828151811061030457fe5b602002602001015161019e565b61031a57600091505b80806001019150506102ec565b5080915050919050565b600080600083815260200190815260200160002054905091905056fea2646970667358221220bce2d506ab56e1f39e83ab911bc3dc1fa378ec7b7fa4d095479c80053e58a3ff64736f6c63430006040033",
  "compiler": {
    "name": "solc",
    "version": "0.6.4+commit.1dca32f3.Emscripten.clang",
    "optimizer": {
      "enabled": false,
      "runs": 200
    },
    "evmVersion": "petersburg"
  }
}