{
  "fileName": "TokenNetwork.sol",
  "contractName": "TokenNetwork",
  "source": "/* solium-disable error-reason */\n/* solium-disable indentation */\npragma solidity 0.6.4;\npragma experimental ABIEncoderV2;\n\nimport \"./ECVerify.sol\";\nimport \"@openzeppelin/contracts/token/ERC20/ERC20.sol\";\nimport \"./Utils.sol\";\nimport \"./SecretRegistry.sol\";\n\n/// @title TokenNetwork\n/// @notice Stores and manages all the Raiden Network channels that use the\n/// token specified\n/// in this TokenNetwork contract.\ncontract TokenNetwork is Utils {\n    // Instance of the token used by the channels\n    ERC20 public token;\n\n    // Instance of SecretRegistry used for storing secrets revealed in a\n    // mediating transfer.\n    SecretRegistry public secret_registry;\n\n    // Chain ID as specified by EIP155 used in balance proof signatures to\n    // avoid replay attacks\n    uint256 public chain_id;\n\n    uint256 public settlement_timeout_min;\n    uint256 public settlement_timeout_max;\n\n    uint256 constant public MAX_SAFE_UINT256 = (\n        115792089237316195423570985008687907853269984665640564039457584007913129639935\n    );\n\n    // The deposit limit per channel per participant.\n    uint256 public channel_participant_deposit_limit;\n    // The total combined deposit of all channels across the whole network\n    uint256 public token_network_deposit_limit;\n\n    // Global, monotonically increasing counter that keeps track of all the\n    // opened channels in this contract\n    uint256 public channel_counter;\n\n    string public constant signature_prefix = \"\\x19Ethereum Signed Message:\\n\";\n\n    // Only for the limited Red Eyes release\n    address public deprecation_executor;\n    bool public safety_deprecation_switch = false;\n\n    // channel_identifier => Channel\n    // channel identifier is the channel_counter value at the time of opening\n    // the channel\n    mapping (uint256 => Channel) public channels;\n\n    // This is needed to enforce one channel per pair of participants\n    // The key is keccak256(participant1_address, participant2_address)\n    mapping (bytes32 => uint256) public participants_hash_to_channel_identifier;\n\n    // We keep the unlock data in a separate mapping to allow channel data\n    // structures to be removed when settling uncooperatively. If there are\n    // locked pending transfers, we need to store data needed to unlock them at\n    // a later time.\n    // The key is `keccak256(uint256 channel_identifier, address participant,\n    // address partner)` Where `participant` is the participant that sent the\n    // pending transfers We need `partner` for knowing where to send the\n    // claimable tokens\n    mapping(bytes32 => UnlockData) private unlock_identifier_to_unlock_data;\n\n    struct Participant {\n        // Total amount of tokens transferred to this smart contract through\n        // the `setTotalDeposit` function, for a specific channel, in the\n        // participant's benefit.\n        // This is a strictly monotonic value. Note that direct token transfer\n        // into the contract cannot be tracked and will be stuck.\n        uint256 deposit;\n\n        // Total amount of tokens withdrawn by the participant during the\n        // lifecycle of this channel.\n        // This is a strictly monotonic value.\n        uint256 withdrawn_amount;\n\n        // This is a value set to true after the channel has been closed, only\n        // if this is the participant who closed the channel.\n        bool is_the_closer;\n\n        // keccak256 of the balance data provided after a closeChannel or an\n        // updateNonClosingBalanceProof call\n        bytes32 balance_hash;\n\n        // Monotonically increasing counter of the off-chain transfers,\n        // provided along with the balance_hash\n        uint256 nonce;\n    }\n\n    enum ChannelState {\n        NonExistent, // 0\n        Opened,      // 1\n        Closed,      // 2\n        Settled,     // 3; Note: The channel has at least one pending unlock\n        Removed      // 4; Note: Channel data is removed, there are no pending unlocks\n    }\n\n    struct Channel {\n        // After opening the channel this value represents the settlement\n        // window. This is the number of blocks that need to be mined between\n        // closing the channel uncooperatively and settling the channel.\n        // After the channel has been uncooperatively closed, this value\n        // represents the block number after which settleChannel can be called.\n        uint256 settle_block_number;\n\n        ChannelState state;\n\n        mapping(address => Participant) participants;\n    }\n\n    struct SettlementData {\n        uint256 deposit;\n        uint256 withdrawn;\n        uint256 transferred;\n        uint256 locked;\n    }\n\n    struct UnlockData {\n        // keccak256 hash of the pending locks from the Raiden client\n        bytes32 locksroot;\n        // Total amount of tokens locked in the pending locks corresponding\n        // to the `locksroot`\n        uint256 locked_amount;\n    }\n\n    struct SettleInput {\n        address participant;\n        uint256 transferred_amount;\n        uint256 locked_amount;\n        bytes32 locksroot;\n    }\n\n    event ChannelOpened(\n        uint256 indexed channel_identifier,\n        address indexed participant1,\n        address indexed participant2,\n        uint256 settle_timeout\n    );\n\n    event ChannelNewDeposit(\n        uint256 indexed channel_identifier,\n        address indexed participant,\n        uint256 total_deposit\n    );\n\n    // Fires when the deprecation_switch's value changes\n    event DeprecationSwitch(bool new_value);\n\n    // total_withdraw is how much the participant has withdrawn during the\n    // lifetime of the channel. The actual amount which the participant withdrew\n    // is `total_withdraw - total_withdraw_from_previous_event_or_zero`\n    event ChannelWithdraw(\n        uint256 indexed channel_identifier,\n        address indexed participant,\n        uint256 total_withdraw\n    );\n\n    event ChannelClosed(\n        uint256 indexed channel_identifier,\n        address indexed closing_participant,\n        uint256 indexed nonce,\n        bytes32 balance_hash\n    );\n\n    event ChannelUnlocked(\n        uint256 indexed channel_identifier,\n        address indexed receiver,\n        address indexed sender,\n        bytes32 locksroot,\n        uint256 unlocked_amount,\n        uint256 returned_tokens\n    );\n\n    event NonClosingBalanceProofUpdated(\n        uint256 indexed channel_identifier,\n        address indexed closing_participant,\n        uint256 indexed nonce,\n        bytes32 balance_hash\n    );\n\n    event ChannelSettled(\n        uint256 indexed channel_identifier,\n        uint256 participant1_amount,\n        bytes32 participant1_locksroot,\n        uint256 participant2_amount,\n        bytes32 participant2_locksroot\n    );\n\n    modifier onlyDeprecationExecutor() {\n        require(msg.sender == deprecation_executor);\n        _;\n    }\n\n    modifier isSafe() {\n        require(safety_deprecation_switch == false);\n        _;\n    }\n\n    modifier isOpen(uint256 channel_identifier) {\n        require(channels[channel_identifier].state == ChannelState.Opened);\n        _;\n    }\n\n    modifier settleTimeoutValid(uint256 timeout) {\n        require(timeout >= settlement_timeout_min);\n        require(timeout <= settlement_timeout_max);\n        _;\n    }\n\n    /// @param _token_address The address of the ERC20 token contract\n    /// @param _secret_registry The address of SecretRegistry contract that witnesses the onchain secret reveals\n    /// @param _chain_id EIP-155 Chain ID of the blockchain where this instance is being deployed\n    /// @param _settlement_timeout_min The shortest settlement period (in number of blocks)\n    /// that can be chosen at the channel opening\n    /// @param _settlement_timeout_max The longest settlement period (in number of blocks)\n    /// that can be chosen at the channel opening\n    /// @param _deprecation_executor The Ethereum address that can disable new deposits and channel creation\n    /// @param _channel_participant_deposit_limit The maximum amount of tokens that can be deposited by each\n    /// participant of each channel. MAX_SAFE_UINT256 means no limits\n    /// @param _token_network_deposit_limit The maximum amount of tokens that this contract can hold\n    /// MAX_SAFE_UINT256 means no limits\n    constructor(\n        address _token_address,\n        address _secret_registry,\n        uint256 _chain_id,\n        uint256 _settlement_timeout_min,\n        uint256 _settlement_timeout_max,\n        address _deprecation_executor,\n        uint256 _channel_participant_deposit_limit,\n        uint256 _token_network_deposit_limit\n    )\n        public\n    {\n        require(_token_address != address(0x0));\n        require(_secret_registry != address(0x0));\n        require(_deprecation_executor != address(0x0));\n        require(_chain_id > 0);\n        require(_settlement_timeout_min > 0);\n        require(_settlement_timeout_max > _settlement_timeout_min);\n        require(contractExists(_token_address));\n        require(contractExists(_secret_registry));\n        require(_channel_participant_deposit_limit > 0);\n        require(_token_network_deposit_limit > 0);\n        require(_token_network_deposit_limit >= _channel_participant_deposit_limit);\n\n        token = ERC20(_token_address);\n\n        secret_registry = SecretRegistry(_secret_registry);\n        chain_id = _chain_id;\n        settlement_timeout_min = _settlement_timeout_min;\n        settlement_timeout_max = _settlement_timeout_max;\n\n        // Make sure the contract is indeed a token contract\n        require(token.totalSupply() > 0);\n\n        deprecation_executor = _deprecation_executor;\n        channel_participant_deposit_limit = _channel_participant_deposit_limit;\n        token_network_deposit_limit = _token_network_deposit_limit;\n    }\n\n    function deprecate() public isSafe onlyDeprecationExecutor {\n        safety_deprecation_switch = true;\n        emit DeprecationSwitch(safety_deprecation_switch);\n    }\n\n    /// @notice Opens a new channel between `participant1` and `participant2`.\n    /// Can be called by anyone\n    /// @param participant1 Ethereum address of a channel participant\n    /// @param participant2 Ethereum address of the other channel participant\n    /// @param settle_timeout Number of blocks that need to be mined between a\n    /// call to closeChannel and settleChannel\n    function openChannel(address participant1, address participant2, uint256 settle_timeout)\n        public\n        isSafe\n        settleTimeoutValid(settle_timeout)\n        returns (uint256)\n    {\n        bytes32 pair_hash;\n        uint256 channel_identifier;\n\n        // Red Eyes release token network limit\n        require(token.balanceOf(address(this)) < token_network_deposit_limit);\n\n        // First increment the counter\n        // There will never be a channel with channel_identifier == 0\n        channel_counter += 1;\n        channel_identifier = channel_counter;\n\n        pair_hash = getParticipantsHash(participant1, participant2);\n\n        // There must only be one channel opened between two participants at\n        // any moment in time.\n        require(participants_hash_to_channel_identifier[pair_hash] == 0);\n        participants_hash_to_channel_identifier[pair_hash] = channel_identifier;\n\n        Channel storage channel = channels[channel_identifier];\n\n        // We always increase the channel counter, therefore no channel data can already exist,\n        // corresponding to this channel_identifier. This check must never fail.\n        assert(channel.settle_block_number == 0);\n        assert(channel.state == ChannelState.NonExistent);\n\n        // Store channel information\n        channel.settle_block_number = settle_timeout;\n        channel.state = ChannelState.Opened;\n\n        emit ChannelOpened(\n            channel_identifier,\n            participant1,\n            participant2,\n            settle_timeout\n        );\n\n        return channel_identifier;\n    }\n\n    /// @notice Sets the channel participant total deposit value.\n    /// Can be called by anyone.\n    /// @param channel_identifier Identifier for the channel on which this\n    /// operation takes place\n    /// @param participant Channel participant whose deposit is being set\n    /// @param total_deposit The total amount of tokens that the participant\n    /// will have as a deposit\n    /// @param partner Channel partner address, needed to compute the total\n    /// channel deposit\n    function setTotalDeposit(\n        uint256 channel_identifier,\n        address participant,\n        uint256 total_deposit,\n        address partner\n    )\n        public\n        isSafe\n        isOpen(channel_identifier)\n    {\n        require(channel_identifier == getChannelIdentifier(participant, partner));\n        require(total_deposit > 0);\n        require(total_deposit <= channel_participant_deposit_limit);\n\n        uint256 added_deposit;\n        uint256 channel_deposit;\n\n        Channel storage channel = channels[channel_identifier];\n        Participant storage participant_state = channel.participants[participant];\n        Participant storage partner_state = channel.participants[partner];\n\n        // Calculate the actual amount of tokens that will be transferred\n        added_deposit = total_deposit - participant_state.deposit;\n\n        // The actual amount of tokens that will be transferred must be > 0\n        require(added_deposit > 0);\n\n        // Underflow check; we use <= because added_deposit == total_deposit for the first deposit\n\n        require(added_deposit <= total_deposit);\n\n        // This should never fail at this point. Added check for security, because we directly set\n        // the participant_state.deposit = total_deposit, while we transfer `added_deposit` tokens\n        assert(participant_state.deposit + added_deposit == total_deposit);\n\n        // Red Eyes release token network limit\n        require(token.balanceOf(address(this)) + added_deposit <= token_network_deposit_limit);\n\n        // Update the participant's channel deposit\n        participant_state.deposit = total_deposit;\n\n        // Calculate the entire channel deposit, to avoid overflow\n        channel_deposit = participant_state.deposit + partner_state.deposit;\n        // Overflow check\n        require(channel_deposit >= participant_state.deposit);\n\n        emit ChannelNewDeposit(\n            channel_identifier,\n            participant,\n            participant_state.deposit\n        );\n\n        // Do the transfer\n        require(token.transferFrom(msg.sender, address(this), added_deposit));\n    }\n\n    /// @notice Allows `participant` to withdraw tokens from the channel that he\n    /// has with `partner`, without closing it. Can be called by anyone. Can\n    /// only be called once per each signed withdraw message\n    /// @param channel_identifier Identifier for the channel on which this\n    /// operation takes place\n    /// @param participant Channel participant, who will receive the withdrawn\n    /// amount\n    /// @param total_withdraw Total amount of tokens that are marked as\n    /// withdrawn from the channel during the channel lifecycle\n    /// @param participant_signature Participant's signature on the withdraw\n    /// data\n    /// @param partner_signature Partner's signature on the withdraw data\n    function setTotalWithdraw(\n        uint256 channel_identifier,\n        address participant,\n        uint256 total_withdraw,\n        uint256 expiration_block,\n        bytes calldata participant_signature,\n        bytes calldata partner_signature\n    )\n        external\n        isOpen(channel_identifier)\n    {\n        uint256 total_deposit;\n        uint256 current_withdraw;\n        address partner;\n\n        require(total_withdraw > 0);\n        require(block.number < expiration_block);\n\n        // Authenticate both channel partners via their signatures.\n        // `participant` is a part of the signed message, so given in the calldata.\n        require(participant == recoverAddressFromWithdrawMessage(\n            channel_identifier,\n            participant,\n            total_withdraw,\n            expiration_block,\n            participant_signature\n        ));\n        partner = recoverAddressFromWithdrawMessage(\n            channel_identifier,\n            participant,\n            total_withdraw,\n            expiration_block,\n            partner_signature\n        );\n\n        // Validate that authenticated partners and the channel identifier match\n        require(channel_identifier == getChannelIdentifier(participant, partner));\n\n        // Read channel state after validating the function input\n        Channel storage channel = channels[channel_identifier];\n        Participant storage participant_state = channel.participants[participant];\n        Participant storage partner_state = channel.participants[partner];\n\n        total_deposit = participant_state.deposit + partner_state.deposit;\n\n        // Entire withdrawn amount must not be bigger than the current channel deposit\n        require((total_withdraw + partner_state.withdrawn_amount) <= total_deposit);\n        require(total_withdraw <= (total_withdraw + partner_state.withdrawn_amount));\n\n        // Using the total_withdraw (monotonically increasing) in the signed\n        // message ensures that we do not allow replay attack to happen, by\n        // using the same withdraw proof twice.\n        // Next two lines enforce the monotonicity of total_withdraw and check for an underflow:\n        // (we use <= because current_withdraw == total_withdraw for the first withdraw)\n        current_withdraw = total_withdraw - participant_state.withdrawn_amount;\n        require(current_withdraw <= total_withdraw);\n\n        // The actual amount of tokens that will be transferred must be > 0 to disable the reuse of\n        // withdraw messages completely.\n        require(current_withdraw > 0);\n\n        // This should never fail at this point. Added check for security, because we directly set\n        // the participant_state.withdrawn_amount = total_withdraw,\n        // while we transfer `current_withdraw` tokens.\n        assert(participant_state.withdrawn_amount + current_withdraw == total_withdraw);\n\n        emit ChannelWithdraw(\n            channel_identifier,\n            participant,\n            total_withdraw\n        );\n\n        // Do the state change and tokens transfer\n        participant_state.withdrawn_amount = total_withdraw;\n        require(token.transfer(participant, current_withdraw));\n\n        // This should never happen, as we have an overflow check in setTotalDeposit\n        assert(total_deposit >= participant_state.deposit);\n        assert(total_deposit >= partner_state.deposit);\n\n        // A withdraw should never happen if a participant already has a\n        // balance proof in storage. This should never fail as we use isOpen.\n        assert(participant_state.nonce == 0);\n        assert(partner_state.nonce == 0);\n\n    }\n\n    /// @notice Close the channel defined by the two participant addresses.\n    /// Anybody can call this function on behalf of a participant (called\n    /// the closing participant), providing a balance proof signed by\n    /// both parties. Callable only once\n    /// @param channel_identifier Identifier for the channel on which this\n    /// operation takes place\n    /// @param closing_participant Channel participant who closes the channel\n    /// @param non_closing_participant Channel partner of the `closing_participant`,\n    /// who provided the balance proof\n    /// @param balance_hash Hash of (transferred_amount, locked_amount,\n    /// locksroot)\n    /// @param additional_hash Computed from the message. Used for message\n    /// authentication\n    /// @param nonce Strictly monotonic value used to order transfers\n    /// @param non_closing_signature Non-closing participant's signature of the balance proof data\n    /// @param closing_signature Closing participant's signature of the balance\n    /// proof data\n    function closeChannel(\n        uint256 channel_identifier,\n        address non_closing_participant,\n        address closing_participant,\n        // The next four arguments form a balance proof.\n        bytes32 balance_hash,\n        uint256 nonce,\n        bytes32 additional_hash,\n        bytes memory non_closing_signature,\n        bytes memory closing_signature\n    )\n        public\n        isOpen(channel_identifier)\n    {\n        require(channel_identifier == getChannelIdentifier(closing_participant, non_closing_participant));\n\n        address recovered_non_closing_participant_address;\n\n        Channel storage channel = channels[channel_identifier];\n\n        channel.state = ChannelState.Closed;\n        channel.participants[closing_participant].is_the_closer = true;\n\n        // This is the block number at which the channel can be settled.\n        channel.settle_block_number += uint256(block.number);\n\n        // The closing participant must have signed the balance proof.\n        address recovered_closing_participant_address = recoverAddressFromBalanceProofCounterSignature(\n            MessageTypeId.BalanceProof,\n            channel_identifier,\n            balance_hash,\n            nonce,\n            additional_hash,\n            non_closing_signature,\n            closing_signature\n        );\n        require(closing_participant == recovered_closing_participant_address);\n\n        // Nonce 0 means that the closer never received a transfer, therefore\n        // never received a balance proof, or he is intentionally not providing\n        // the latest transfer, in which case the closing party is going to\n        // lose the tokens that were transferred to him.\n        if (nonce > 0) {\n            recovered_non_closing_participant_address = recoverAddressFromBalanceProof(\n                channel_identifier,\n                balance_hash,\n                nonce,\n                additional_hash,\n                non_closing_signature\n            );\n            // Signature must be from the channel partner\n            require(non_closing_participant == recovered_non_closing_participant_address);\n\n            updateBalanceProofData(\n                channel,\n                recovered_non_closing_participant_address,\n                nonce,\n                balance_hash\n            );\n        }\n\n        emit ChannelClosed(channel_identifier, closing_participant, nonce, balance_hash);\n    }\n\n    /// @notice Called on a closed channel, the function allows the non-closing\n    /// participant to provide the last balance proof, which modifies the\n    /// closing participant's state. Can be called multiple times by anyone.\n    /// @param channel_identifier Identifier for the channel on which this\n    /// operation takes place\n    /// @param closing_participant Channel participant who closed the channel\n    /// @param non_closing_participant Channel participant who needs to update\n    /// the balance proof\n    /// @param balance_hash Hash of (transferred_amount, locked_amount,\n    /// locksroot)\n    /// @param additional_hash Computed from the message. Used for message\n    /// authentication\n    /// @param nonce Strictly monotonic value used to order transfers\n    /// @param closing_signature Closing participant's signature of the balance\n    /// proof data\n    /// @param non_closing_signature Non-closing participant signature of the\n    /// balance proof data\n    function updateNonClosingBalanceProof(\n        uint256 channel_identifier,\n        address closing_participant,\n        address non_closing_participant,\n        // The next four arguments form a balance proof\n        bytes32 balance_hash,\n        uint256 nonce,\n        bytes32 additional_hash,\n        bytes calldata closing_signature,\n        bytes calldata non_closing_signature\n    )\n        external\n    {\n        require(channel_identifier == getChannelIdentifier(\n            closing_participant,\n            non_closing_participant\n        ));\n        require(balance_hash != bytes32(0x0));\n        require(nonce > 0);\n\n        address recovered_non_closing_participant;\n        address recovered_closing_participant;\n\n        Channel storage channel = channels[channel_identifier];\n\n        require(channel.state == ChannelState.Closed);\n\n        // Calling this function after the settlement window is forbidden to\n        // fix the following race condition:\n        //\n        // 1 A badly configured node A, that doesn't have a monitoring service\n        //   and is temporarily offline does not call update during the\n        //   settlement window.\n        // 2 The well behaved partner B, who called close, sees the\n        //   settlement window is over and calls settle. At this point the B's\n        //   balance proofs which should be provided by A is missing, so B will\n        //   call settle with its balance proof zeroed out.\n        // 3 A restarts and calls update, which will change B's balance\n        //   proof.\n        // 4 At this point, the transactions from 2 and 3 are racing, and one\n        //   of them will fail.\n        //\n        // To avoid the above race condition, which would require special\n        // handling on both nodes, the call to update is forbidden after the\n        // settlement window. This does not affect safety, since we assume the\n        // nodes are always properly configured and have a monitoring service\n        // available to call update on the user's behalf.\n        require(channel.settle_block_number >= block.number);\n\n        // We need the signature from the non-closing participant to allow\n        // anyone to make this transaction. E.g. a monitoring service.\n        recovered_non_closing_participant = recoverAddressFromBalanceProofCounterSignature(\n            MessageTypeId.BalanceProofUpdate,\n            channel_identifier,\n            balance_hash,\n            nonce,\n            additional_hash,\n            closing_signature,\n            non_closing_signature\n        );\n        require(non_closing_participant == recovered_non_closing_participant);\n\n        recovered_closing_participant = recoverAddressFromBalanceProof(\n            channel_identifier,\n            balance_hash,\n            nonce,\n            additional_hash,\n            closing_signature\n        );\n        require(closing_participant == recovered_closing_participant);\n\n        Participant storage closing_participant_state = channel.participants[closing_participant];\n        // Make sure the first signature is from the closing participant\n        require(closing_participant_state.is_the_closer);\n\n        // Update the balance proof data for the closing_participant\n        updateBalanceProofData(channel, closing_participant, nonce, balance_hash);\n\n        emit NonClosingBalanceProofUpdated(\n            channel_identifier,\n            closing_participant,\n            nonce,\n            balance_hash\n        );\n    }\n\n    /// @notice Settles the balance between the two parties. Note that arguments\n    /// order counts: `participant1_transferred_amount +\n    /// participant1_locked_amount` <= `participant2_transferred_amount +\n    /// participant2_locked_amount`\n    /// @param channel_identifier Identifier for the channel on which this\n    /// operation takes place\n    /// @param participant1 Channel participant\n    /// @param participant1_transferred_amount The latest known amount of tokens\n    /// transferred from `participant1` to `participant2`\n    /// @param participant1_locked_amount Amount of tokens owed by\n    /// `participant1` to `participant2`, contained in locked transfers that\n    /// will be retrieved by calling `unlock` after the channel is settled\n    /// @param participant1_locksroot The latest known hash of the\n    /// pending hash-time locks of `participant1`, used to validate the unlocked\n    /// proofs. If no balance_hash has been submitted, locksroot is ignored\n    /// @param participant2 Other channel participant\n    /// @param participant2_transferred_amount The latest known amount of tokens\n    /// transferred from `participant2` to `participant1`\n    /// @param participant2_locked_amount Amount of tokens owed by\n    /// `participant2` to `participant1`, contained in locked transfers that\n    /// will be retrieved by calling `unlock` after the channel is settled\n    /// @param participant2_locksroot The latest known hash of the\n    /// pending hash-time locks of `participant2`, used to validate the unlocked\n    /// proofs. If no balance_hash has been submitted, locksroot is ignored\n    function settleChannel(\n        uint256 channel_identifier,\n        address participant1,\n        uint256 participant1_transferred_amount,\n        uint256 participant1_locked_amount,\n        bytes32 participant1_locksroot,\n        address participant2,\n        uint256 participant2_transferred_amount,\n        uint256 participant2_locked_amount,\n        bytes32 participant2_locksroot\n    )\n        public\n    {\n        settleChannel2(\n            channel_identifier,\n            SettleInput({\n                participant: participant1,\n                transferred_amount: participant1_transferred_amount,\n                locked_amount: participant1_locked_amount,\n                locksroot: participant1_locksroot\n            }),\n            SettleInput({\n                participant: participant2,\n                transferred_amount: participant2_transferred_amount,\n                locked_amount: participant2_locked_amount,\n                locksroot: participant2_locksroot\n            })\n        );\n    }\n\n    function settleChannel2(\n        uint256 channel_identifier,\n        SettleInput memory participant1_settlement,\n        SettleInput memory participant2_settlement\n    )\n        public\n    {\n        // There are several requirements that this function MUST enforce:\n        // - it MUST never fail; therefore, any overflows or underflows must be\n        // handled gracefully\n        // - it MUST ensure that if participants use the latest valid balance proofs,\n        // provided by the official Raiden client, the participants will be able\n        // to receive correct final balances at the end of the channel lifecycle\n        // - it MUST ensure that the participants cannot cheat by providing an\n        // old, valid balance proof of their partner; meaning that their partner MUST\n        // receive at least the amount of tokens that he would have received if\n        // the latest valid balance proofs are used.\n        // - the contract cannot determine if a balance proof is invalid (values\n        // are not within the constraints enforced by the official Raiden client),\n        // therefore it cannot ensure correctness. Users MUST use the official\n        // Raiden clients for signing balance proofs.\n\n        address participant1 = participant1_settlement.participant;\n        address participant2 = participant2_settlement.participant;\n        require(channel_identifier == getChannelIdentifier(participant1, participant2));\n\n        bytes32 pair_hash;\n\n        pair_hash = getParticipantsHash(participant1, participant2);\n        Channel storage channel = channels[channel_identifier];\n\n        require(channel.state == ChannelState.Closed);\n\n        // Settlement window must be over\n        require(channel.settle_block_number < block.number);\n\n        Participant storage participant1_state = channel.participants[participant1];\n        Participant storage participant2_state = channel.participants[participant2];\n\n        require(verifyBalanceHashData(\n            participant1_state,\n            participant1_settlement\n        ));\n\n        require(verifyBalanceHashData(\n            participant2_state,\n            participant2_settlement\n        ));\n\n        // We are calculating the final token amounts that need to be\n        // transferred to the participants now and the amount of tokens that\n        // need to remain locked in the contract. These tokens can be unlocked\n        // by calling `unlock`.\n        // participant1_transferred_amount = the amount of tokens that\n        //   participant1 will receive in this transaction.\n        // participant2_transferred_amount = the amount of tokens that\n        //   participant2 will receive in this transaction.\n        // participant1_locked_amount = the amount of tokens remaining in the\n        //   contract, representing pending transfers from participant1 to participant2.\n        // participant2_locked_amount = the amount of tokens remaining in the\n        //   contract, representing pending transfers from participant2 to participant1.\n        // We are reusing variables due to the local variables number limit.\n        // For better readability this can be refactored further.\n        (\n            participant1_settlement.transferred_amount,\n            participant2_settlement.transferred_amount,\n            participant1_settlement.locked_amount,\n            participant2_settlement.locked_amount\n        ) = getSettleTransferAmounts(\n            participant1_state,\n            participant1_settlement.transferred_amount,\n            participant1_settlement.locked_amount,\n            participant2_state,\n            participant2_settlement.transferred_amount,\n            participant2_settlement.locked_amount\n        );\n\n        // Remove the channel data from storage\n        delete channel.participants[participant1];\n        delete channel.participants[participant2];\n        delete channels[channel_identifier];\n\n        // Remove the pair's channel counter\n        delete participants_hash_to_channel_identifier[pair_hash];\n\n        // Store balance data needed for `unlock`, including the calculated\n        // locked amounts remaining in the contract.\n        storeUnlockData(\n            channel_identifier,\n            participant1_settlement,\n            participant2\n        );\n        storeUnlockData(\n            channel_identifier,\n            participant2_settlement,\n            participant1\n        );\n\n        emit ChannelSettled(\n            channel_identifier,\n            participant1_settlement.transferred_amount,\n            participant1_settlement.locksroot,\n            participant2_settlement.transferred_amount,\n            participant2_settlement.locksroot\n        );\n\n        // Do the actual token transfers\n        if (participant1_settlement.transferred_amount > 0) {\n            require(token.transfer(participant1, participant1_settlement.transferred_amount));\n        }\n\n        if (participant2_settlement.transferred_amount > 0) {\n            require(token.transfer(participant2, participant2_settlement.transferred_amount));\n        }\n    }\n\n    /// @notice Unlocks all pending off-chain transfers from `sender` to\n    /// `receiver` and sends the locked tokens corresponding to locks with\n    /// secrets registered on-chain to the `receiver`. Locked tokens\n    /// corresponding to locks where the secret was not revealed on-chain will\n    /// return to the `sender`. Anyone can call unlock.\n    /// @param channel_identifier Identifier for the channel on which this\n    /// operation takes place\n    /// @param receiver Address who will receive the claimable unlocked\n    /// tokens\n    /// @param sender Address who sent the pending transfers and will receive\n    /// the unclaimable unlocked tokens\n    /// @param locks All pending locks concatenated in order of creation\n    /// that `sender` sent to `receiver`\n    function unlock(\n        uint256 channel_identifier,\n        address receiver,\n        address sender,\n        bytes memory locks\n    )\n        public\n    {\n        // Channel represented by channel_identifier must be settled and\n        // channel data deleted\n        require(channel_identifier != getChannelIdentifier(receiver, sender));\n\n        // After the channel is settled the storage is cleared, therefore the\n        // value will be NonExistent and not Settled. The value Settled is used\n        // for the external APIs\n        require(channels[channel_identifier].state == ChannelState.NonExistent);\n\n        bytes32 unlock_key;\n        bytes32 computed_locksroot;\n        uint256 unlocked_amount;\n        uint256 locked_amount;\n        uint256 returned_tokens;\n\n        // Calculate the locksroot for the pending transfers and the amount of\n        // tokens corresponding to the locked transfers with secrets revealed\n        // on chain.\n        (computed_locksroot, unlocked_amount) = getHashAndUnlockedAmount(\n            locks\n        );\n\n        // The sender must have a non-empty locksroot on-chain that must be\n        // the same as the computed locksroot.\n        // Get the amount of tokens that have been left in the contract, to\n        // account for the pending transfers `sender` -> `receiver`.\n        unlock_key = getUnlockIdentifier(channel_identifier, sender, receiver);\n        UnlockData storage unlock_data = unlock_identifier_to_unlock_data[unlock_key];\n        locked_amount = unlock_data.locked_amount;\n\n        // Locksroot must be the same as the computed locksroot\n        require(unlock_data.locksroot == computed_locksroot);\n\n        // There are no pending transfers if the locked_amount is 0.\n        // Transaction must fail\n        require(locked_amount > 0);\n\n        // Make sure we don't transfer more tokens than previously reserved in\n        // the smart contract.\n        unlocked_amount = min(unlocked_amount, locked_amount);\n\n        // Transfer the rest of the tokens back to the sender\n        returned_tokens = locked_amount - unlocked_amount;\n\n        // Remove sender's unlock data\n        delete unlock_identifier_to_unlock_data[unlock_key];\n\n        emit ChannelUnlocked(\n            channel_identifier,\n            receiver,\n            sender,\n            computed_locksroot,\n            unlocked_amount,\n            returned_tokens\n        );\n\n        // Transfer the unlocked tokens to the receiver. unlocked_amount can\n        // be 0\n        if (unlocked_amount > 0) {\n            require(token.transfer(receiver, unlocked_amount));\n        }\n\n        // Transfer the rest of the tokens back to the sender\n        if (returned_tokens > 0) {\n            require(token.transfer(sender, returned_tokens));\n        }\n\n        // At this point, this should always be true\n        assert(locked_amount >= returned_tokens);\n        assert(locked_amount >= unlocked_amount);\n    }\n\n    /* /// @notice Cooperatively settles the balances between the two channel\n    /// participants and transfers the agreed upon token amounts to the\n    /// participants. After this the channel lifecycle has ended and no more\n    /// operations can be done on it.\n    /// @param channel_identifier Identifier for the channel on which this\n    /// operation takes place\n    /// @param participant1_address Address of channel participant\n    /// @param participant1_balance Amount of tokens that `participant1_address`\n    /// must receive when the channel is settled and removed\n    /// @param participant2_address Address of the other channel participant\n    /// @param participant2_balance Amount of tokens that `participant2_address`\n    /// must receive when the channel is settled and removed\n    /// @param participant1_signature Signature of `participant1_address` on the\n    /// cooperative settle message\n    /// @param participant2_signature Signature of `participant2_address` on the\n    /// cooperative settle message\n    function cooperativeSettle(\n        uint256 channel_identifier,\n        address participant1_address,\n        uint256 participant1_balance,\n        address participant2_address,\n        uint256 participant2_balance,\n        bytes participant1_signature,\n        bytes participant2_signature\n    )\n        public\n    {\n        require(channel_identifier == getChannelIdentifier(\n            participant1_address,\n            participant2_address\n        ));\n        bytes32 pair_hash;\n        address participant1;\n        address participant2;\n        uint256 total_available_deposit;\n\n        pair_hash = getParticipantsHash(participant1_address, participant2_address);\n        Channel storage channel = channels[channel_identifier];\n\n        require(channel.state == ChannelState.Opened);\n\n        participant1 = recoverAddressFromCooperativeSettleSignature(\n            channel_identifier,\n            participant1_address,\n            participant1_balance,\n            participant2_address,\n            participant2_balance,\n            participant1_signature\n        );\n        // The provided address must be the same as the recovered one\n        require(participant1 == participant1_address);\n\n        participant2 = recoverAddressFromCooperativeSettleSignature(\n            channel_identifier,\n            participant1_address,\n            participant1_balance,\n            participant2_address,\n            participant2_balance,\n            participant2_signature\n        );\n        // The provided address must be the same as the recovered one\n        require(participant2 == participant2_address);\n\n        Participant storage participant1_state = channel.participants[participant1];\n        Participant storage participant2_state = channel.participants[participant2];\n\n        total_available_deposit = getChannelAvailableDeposit(\n            participant1_state,\n            participant2_state\n        );\n        // The sum of the provided balances must be equal to the total\n        // available deposit\n        require(total_available_deposit == (participant1_balance + participant2_balance));\n        // Overflow check for the balances addition from the above check.\n        // This overflow should never happen if the token.transfer function is implemented\n        // correctly. We do not control the token implementation, therefore we add this\n        // check for safety.\n        require(participant1_balance <= participant1_balance + participant2_balance);\n\n        // Remove channel data from storage before doing the token transfers\n        delete channel.participants[participant1];\n        delete channel.participants[participant2];\n        delete channels[channel_identifier];\n\n        // Remove the pair's channel counter\n        delete participants_hash_to_channel_identifier[pair_hash];\n\n        emit ChannelSettled(channel_identifier, participant1_balance, participant2_balance);\n\n        // Do the token transfers\n        if (participant1_balance > 0) {\n            require(token.transfer(participant1, participant1_balance));\n        }\n\n        if (participant2_balance > 0) {\n            require(token.transfer(participant2, participant2_balance));\n        }\n    } */\n\n    /// @notice Returns the unique identifier for the channel given by the\n    /// contract\n    /// @param participant Address of a channel participant\n    /// @param partner Address of the other channel participant\n    /// @return Unique identifier for the channel. It can be 0 if channel does\n    /// not exist\n    function getChannelIdentifier(address participant, address partner)\n        public\n        view\n        returns (uint256)\n    {\n        require(participant != address(0x0));\n        require(partner != address(0x0));\n        require(participant != partner);\n\n        bytes32 pair_hash = getParticipantsHash(participant, partner);\n        return participants_hash_to_channel_identifier[pair_hash];\n    }\n\n    /// @dev Returns the channel specific data.\n    /// @param channel_identifier Identifier for the channel on which this\n    /// operation takes place\n    /// @param participant1 Address of a channel participant\n    /// @param participant2 Address of the other channel participant\n    /// @return Channel settle_block_number and state\n    /// @notice The contract cannot really distinguish Settled and Removed\n    /// states, especially when wrong participants are given as input.\n    /// The contract does not remember the participants of the channel\n    function getChannelInfo(\n        uint256 channel_identifier,\n        address participant1,\n        address participant2\n    )\n        external\n        view\n        returns (uint256, ChannelState)\n    {\n        bytes32 unlock_key1;\n        bytes32 unlock_key2;\n\n        Channel storage channel = channels[channel_identifier];\n        ChannelState state = channel.state;  // This must **not** update the storage\n\n        if (state == ChannelState.NonExistent &&\n            channel_identifier > 0 &&\n            channel_identifier <= channel_counter\n        ) {\n            // The channel has been settled, channel data is removed Therefore,\n            // the channel state in storage is actually `0`, or `NonExistent`\n            // However, for this view function, we return `Settled`, in order\n            // to provide a consistent external API\n            state = ChannelState.Settled;\n\n            // We might still have data stored for future unlock operations\n            // Only if we do not, we can consider the channel as `Removed`\n            unlock_key1 = getUnlockIdentifier(channel_identifier, participant1, participant2);\n            UnlockData storage unlock_data1 = unlock_identifier_to_unlock_data[unlock_key1];\n\n            unlock_key2 = getUnlockIdentifier(channel_identifier, participant2, participant1);\n            UnlockData storage unlock_data2 = unlock_identifier_to_unlock_data[unlock_key2];\n\n            if (unlock_data1.locked_amount == 0 && unlock_data2.locked_amount == 0) {\n                state = ChannelState.Removed;\n            }\n        }\n\n        return (\n            channel.settle_block_number,\n            state\n        );\n    }\n\n    /// @dev Returns the channel specific data.\n    /// @param channel_identifier Identifier for the channel on which this\n    /// operation takes place\n    /// @param participant Address of the channel participant whose data will be\n    /// returned\n    /// @param partner Address of the channel partner\n    /// @return Participant's deposit, withdrawn_amount, whether the participant\n    /// has called `closeChannel` or not, balance_hash, nonce, locksroot,\n    /// locked_amount\n    function getChannelParticipantInfo(\n            uint256 channel_identifier,\n            address participant,\n            address partner\n    )\n        external\n        view\n        returns (uint256, uint256, bool, bytes32, uint256, bytes32, uint256)\n    {\n        bytes32 unlock_key;\n\n        Participant storage participant_state = channels[channel_identifier].participants[\n            participant\n        ];\n        unlock_key = getUnlockIdentifier(channel_identifier, participant, partner);\n        UnlockData storage unlock_data = unlock_identifier_to_unlock_data[unlock_key];\n\n        return (\n            participant_state.deposit,\n            participant_state.withdrawn_amount,\n            participant_state.is_the_closer,\n            participant_state.balance_hash,\n            participant_state.nonce,\n            unlock_data.locksroot,\n            unlock_data.locked_amount\n        );\n    }\n\n    /// @dev Get the hash of the participant addresses, ordered\n    /// lexicographically\n    /// @param participant Address of a channel participant\n    /// @param partner Address of the other channel participant\n    function getParticipantsHash(address participant, address partner)\n        public\n        pure\n        returns (bytes32)\n    {\n        require(participant != address(0x0));\n        require(partner != address(0x0));\n        require(participant != partner);\n\n        if (participant < partner) {\n            return keccak256(abi.encodePacked(participant, partner));\n        } else {\n            return keccak256(abi.encodePacked(partner, participant));\n        }\n    }\n\n    /// @dev Get the hash of the channel identifier and the participant\n    /// addresses (whose ordering matters). The hash might be useful for\n    /// the receiver to look up the appropriate UnlockData to claim\n    /// @param channel_identifier Identifier for the channel which the\n    /// UnlockData is about\n    /// @param sender Sender of the pending transfers that the UnlockData\n    /// represents\n    /// @param receiver Receiver of the pending transfers that the UnlockData\n    /// represents\n    function getUnlockIdentifier(\n        uint256 channel_identifier,\n        address sender,\n        address receiver\n    )\n        public\n        pure\n        returns (bytes32)\n    {\n        require(sender != receiver);\n        return keccak256(abi.encodePacked(channel_identifier, sender, receiver));\n    }\n\n    function updateBalanceProofData(\n        Channel storage channel,\n        address participant,\n        uint256 nonce,\n        bytes32 balance_hash\n    )\n        internal\n    {\n        Participant storage participant_state = channel.participants[participant];\n\n        // Multiple calls to updateNonClosingBalanceProof can be made and we\n        // need to store the last known balance proof data.\n        // This line prevents Monitoring Services from getting rewards\n        // again and again using the same reward proof.\n        require(nonce > participant_state.nonce);\n\n        participant_state.nonce = nonce;\n        participant_state.balance_hash = balance_hash;\n    }\n\n    function storeUnlockData(\n        uint256 channel_identifier,\n        SettleInput memory settle_input,\n        address receiver\n    )\n        internal\n    {\n        // If there are transfers to unlock, store the locksroot and total\n        // amount of tokens\n        if (settle_input.locked_amount == 0) {\n            return;\n        }\n\n        bytes32 key = getUnlockIdentifier(channel_identifier, settle_input.participant, receiver);\n        UnlockData storage unlock_data = unlock_identifier_to_unlock_data[key];\n        unlock_data.locksroot = settle_input.locksroot;\n        unlock_data.locked_amount = settle_input.locked_amount;\n    }\n\n    function getChannelAvailableDeposit(\n        Participant storage participant1_state,\n        Participant storage participant2_state\n    )\n        internal\n        view\n        returns (uint256 total_available_deposit)\n    {\n        total_available_deposit = (\n            participant1_state.deposit +\n            participant2_state.deposit -\n            participant1_state.withdrawn_amount -\n            participant2_state.withdrawn_amount\n        );\n    }\n\n    /// @dev Function that calculates the amount of tokens that the participants\n    /// will receive when calling settleChannel.\n    /// Check https://github.com/raiden-network/raiden-contracts/issues/188 for the settlement\n    /// algorithm analysis and explanations.\n    function getSettleTransferAmounts(\n        Participant storage participant1_state,\n        uint256 participant1_transferred_amount,\n        uint256 participant1_locked_amount,\n        Participant storage participant2_state,\n        uint256 participant2_transferred_amount,\n        uint256 participant2_locked_amount\n    )\n        private\n        view\n        returns (uint256, uint256, uint256, uint256)\n    {\n        // The scope of this function is to compute the settlement amounts that\n        // the two channel participants will receive when calling settleChannel\n        // and the locked amounts that remain in the contract, to account for\n        // the pending, not finalized transfers, that will be received by the\n        // participants when calling `unlock`.\n\n        // The amount of tokens that participant1 MUST receive at the end of\n        // the channel lifecycle (after settleChannel and unlock) is:\n        // B1 = D1 - W1 + T2 - T1 + Lc2 - Lc1\n\n        // The amount of tokens that participant2 MUST receive at the end of\n        // the channel lifecycle (after settleChannel and unlock) is:\n        // B2 = D2 - W2 + T1 - T2 + Lc1 - Lc2\n\n        // B1 + B2 = TAD = D1 + D2 - W1 - W2\n        // TAD = total available deposit at settlement time\n\n        // L1 = Lc1 + Lu1\n        // L2 = Lc2 + Lu2\n\n        // where:\n        // B1 = final balance of participant1 after the channel is removed\n        // D1 = total amount deposited by participant1 into the channel\n        // W1 = total amount withdrawn by participant1 from the channel\n        // T2 = total amount transferred by participant2 to participant1 (finalized transfers)\n        // T1 = total amount transferred by participant1 to participant2 (finalized transfers)\n        // L1 = total amount of tokens locked in pending transfers, sent by\n        //   participant1 to participant2\n        // L2 = total amount of tokens locked in pending transfers, sent by\n        //   participant2 to participant1\n        // Lc2 = the amount that can be claimed by participant1 from the pending\n        //   transfers (that have not been finalized off-chain), sent by\n        //   participant2 to participant1. These are part of the locked amount\n        //   value from participant2's balance proof. They are considered claimed\n        //   if the secret corresponding to these locked transfers was registered\n        //   on-chain, in the SecretRegistry contract, before the lock's expiration.\n        // Lu1 = unclaimable locked amount from L1\n        // Lc1 = the amount that can be claimed by participant2 from the pending\n        //   transfers (that have not been finalized off-chain),\n        //   sent by participant1 to participant2\n        // Lu2 = unclaimable locked amount from L2\n\n        // Notes:\n        // 1) The unclaimble tokens from a locked amount will return to the sender.\n        // At the time of calling settleChannel, the TokenNetwork contract does\n        // not know what locked amounts are claimable or unclaimable.\n        // 2) There are some Solidity constraints that make the calculations\n        // more difficult: attention to overflows and underflows, that MUST be\n        // handled without throwing.\n\n        // Cases that require attention:\n        // case1. If participant1 does NOT provide a balance proof or provides\n        // an old balance proof.  participant2_transferred_amount can be [0,\n        // real_participant2_transferred_amount) We MUST NOT punish\n        // participant2.\n        // case2. If participant2 does NOT provide a balance proof or provides\n        // an old balance proof.  participant1_transferred_amount can be [0,\n        // real_participant1_transferred_amount) We MUST NOT punish\n        // participant1.\n        // case3. If neither participants provide a balance proof, we just\n        // subtract their withdrawn amounts from their deposits.\n\n        // This is why, the algorithm implemented in Solidity is:\n        // (explained at each step, below)\n        // RmaxP1 = (T2 + L2) - (T1 + L1) + D1 - W1\n        // RmaxP1 = min(TAD, RmaxP1)\n        // RmaxP2 = TAD - RmaxP1\n        // SL2 = min(RmaxP1, L2)\n        // S1 = RmaxP1 - SL2\n        // SL1 = min(RmaxP2, L1)\n        // S2 = RmaxP2 - SL1\n\n        // where:\n        // RmaxP1 = due to possible over/underflows that only appear when using\n        //    old balance proofs & the fact that settlement balance calculation\n        //    is symmetric (we can calculate either RmaxP1 and RmaxP2 first,\n        //    order does not affect result), this is a convention used to determine\n        //    the maximum receivable amount of participant1 at settlement time\n        // S1 = amount received by participant1 when calling settleChannel\n        // SL1 = the maximum amount from L1 that can be locked in the\n        //   TokenNetwork contract when calling settleChannel (due to overflows\n        //   that only happen when using old balance proofs)\n        // S2 = amount received by participant2 when calling settleChannel\n        // SL2 = the maximum amount from L2 that can be locked in the\n        //   TokenNetwork contract when calling settleChannel (due to overflows\n        //   that only happen when using old balance proofs)\n\n        uint256 participant1_amount;\n        uint256 participant2_amount;\n        uint256 total_available_deposit;\n\n        SettlementData memory participant1_settlement;\n        SettlementData memory participant2_settlement;\n\n        participant1_settlement.deposit = participant1_state.deposit;\n        participant1_settlement.withdrawn = participant1_state.withdrawn_amount;\n        participant1_settlement.transferred = participant1_transferred_amount;\n        participant1_settlement.locked = participant1_locked_amount;\n\n        participant2_settlement.deposit = participant2_state.deposit;\n        participant2_settlement.withdrawn = participant2_state.withdrawn_amount;\n        participant2_settlement.transferred = participant2_transferred_amount;\n        participant2_settlement.locked = participant2_locked_amount;\n\n        // TAD = D1 + D2 - W1 - W2 = total available deposit at settlement time\n        total_available_deposit = getChannelAvailableDeposit(\n            participant1_state,\n            participant2_state\n        );\n\n        // RmaxP1 = (T2 + L2) - (T1 + L1) + D1 - W1\n        // This amount is the maximum possible amount that participant1 can\n        // receive at settlement time and also contains the entire locked amount\n        //  of the pending transfers from participant2 to participant1.\n        participant1_amount = getMaxPossibleReceivableAmount(\n            participant1_settlement,\n            participant2_settlement\n        );\n\n        // RmaxP1 = min(TAD, RmaxP1)\n        // We need to bound this to the available channel deposit in order to\n        // not send tokens from other channels. The only case where TAD is\n        // smaller than RmaxP1 is when at least one balance proof is old.\n        participant1_amount = min(participant1_amount, total_available_deposit);\n\n        // RmaxP2 = TAD - RmaxP1\n        // Now it is safe to subtract without underflow\n        participant2_amount = total_available_deposit - participant1_amount;\n\n        // SL2 = min(RmaxP1, L2)\n        // S1 = RmaxP1 - SL2\n        // Both operations are done by failsafe_subtract\n        // We take out participant2's pending transfers locked amount, bounding\n        // it by the maximum receivable amount of participant1\n        (participant1_amount, participant2_locked_amount) = failsafe_subtract(\n            participant1_amount,\n            participant2_locked_amount\n        );\n\n        // SL1 = min(RmaxP2, L1)\n        // S2 = RmaxP2 - SL1\n        // Both operations are done by failsafe_subtract\n        // We take out participant1's pending transfers locked amount, bounding\n        // it by the maximum receivable amount of participant2\n        (participant2_amount, participant1_locked_amount) = failsafe_subtract(\n            participant2_amount,\n            participant1_locked_amount\n        );\n\n        // This should never throw:\n        // S1 and S2 MUST be smaller than TAD\n        assert(participant1_amount <= total_available_deposit);\n        assert(participant2_amount <= total_available_deposit);\n        // S1 + S2 + SL1 + SL2 == TAD\n        assert(total_available_deposit == (\n            participant1_amount +\n            participant2_amount +\n            participant1_locked_amount +\n            participant2_locked_amount\n        ));\n\n        return (\n            participant1_amount,\n            participant2_amount,\n            participant1_locked_amount,\n            participant2_locked_amount\n        );\n    }\n\n    function getMaxPossibleReceivableAmount(\n        SettlementData memory participant1_settlement,\n        SettlementData memory participant2_settlement\n    )\n        internal\n        pure\n        returns (uint256)\n    {\n        uint256 participant1_max_transferred;\n        uint256 participant2_max_transferred;\n        uint256 participant1_net_max_received;\n        uint256 participant1_max_amount;\n\n        // This is the maximum possible amount that participant1 could transfer\n        // to participant2, if all the pending lock secrets have been\n        // registered\n        participant1_max_transferred = failsafe_addition(\n            participant1_settlement.transferred,\n            participant1_settlement.locked\n        );\n\n        // This is the maximum possible amount that participant2 could transfer\n        // to participant1, if all the pending lock secrets have been\n        // registered\n        participant2_max_transferred = failsafe_addition(\n            participant2_settlement.transferred,\n            participant2_settlement.locked\n        );\n\n        // We enforce this check artificially, in order to get rid of hard\n        // to deal with over/underflows. Settlement balance calculation is\n        // symmetric (we can calculate either RmaxP1 and RmaxP2 first, order does\n        // not affect result). This means settleChannel must be called with\n        // ordered values.\n        require(participant2_max_transferred >= participant1_max_transferred);\n\n        assert(participant1_max_transferred >= participant1_settlement.transferred);\n        assert(participant2_max_transferred >= participant2_settlement.transferred);\n\n        // This is the maximum amount that participant1 can receive at settlement time\n        participant1_net_max_received = (\n            participant2_max_transferred -\n            participant1_max_transferred\n        );\n\n        // Next, we add the participant1's deposit and subtract the already\n        // withdrawn amount\n        participant1_max_amount = failsafe_addition(\n            participant1_net_max_received,\n            participant1_settlement.deposit\n        );\n\n        // Subtract already withdrawn amount\n        (participant1_max_amount, ) = failsafe_subtract(\n            participant1_max_amount,\n            participant1_settlement.withdrawn\n        );\n        return participant1_max_amount;\n    }\n\n    function verifyBalanceHashData(\n        Participant storage participant,\n        SettleInput memory settle_input\n    )\n        internal\n        view\n        returns (bool)\n    {\n        // When no balance proof has been provided, we need to check this\n        // separately because hashing values of 0 outputs a value != 0\n        if (participant.balance_hash == 0 &&\n            settle_input.transferred_amount == 0 &&\n            settle_input.locked_amount == 0\n            /* locksroot is ignored. */\n        ) {\n            return true;\n        }\n\n        // Make sure the hash of the provided state is the same as the stored\n        // balance_hash\n        return participant.balance_hash == keccak256(abi.encodePacked(\n            settle_input.transferred_amount,\n            settle_input.locked_amount,\n            settle_input.locksroot\n        ));\n    }\n\n    function recoverAddressFromBalanceProof(\n        uint256 channel_identifier,\n        bytes32 balance_hash,\n        uint256 nonce,\n        bytes32 additional_hash,\n        bytes memory signature\n    )\n        internal\n        view\n        returns (address signature_address)\n    {\n        // Length of the actual message: 20 + 32 + 32 + 32 + 32 + 32 + 32\n        string memory message_length = \"212\";\n\n        bytes32 message_hash = keccak256(abi.encodePacked(\n            signature_prefix,\n            message_length,\n            address(this),\n            chain_id,\n            uint256(MessageTypeId.BalanceProof),\n            channel_identifier,\n            balance_hash,\n            nonce,\n            additional_hash\n        ));\n\n        signature_address = ECVerify.ecverify(message_hash, signature);\n    }\n\n    function recoverAddressFromBalanceProofCounterSignature(\n        MessageTypeId message_type_id,\n        uint256 channel_identifier,\n        bytes32 balance_hash,\n        uint256 nonce,\n        bytes32 additional_hash,\n        bytes memory closing_signature,\n        bytes memory non_closing_signature\n    )\n        internal\n        view\n        returns (address signature_address)\n    {\n        // Length of the actual message: 20 + 32 + 32 + 32 + 32 + 32 + 32 + 65\n        string memory message_length = \"277\";\n\n        bytes32 message_hash = keccak256(abi.encodePacked(\n            signature_prefix,\n            message_length,\n            address(this),\n            chain_id,\n            uint256(message_type_id),\n            channel_identifier,\n            balance_hash,\n            nonce,\n            additional_hash,\n            closing_signature\n        ));\n\n        signature_address = ECVerify.ecverify(message_hash, non_closing_signature);\n    }\n\n    /* function recoverAddressFromCooperativeSettleSignature(\n        uint256 channel_identifier,\n        address participant1,\n        uint256 participant1_balance,\n        address participant2,\n        uint256 participant2_balance,\n        bytes signature\n    )\n        view\n        internal\n        returns (address signature_address)\n    {\n        // Length of the actual message: 20 + 32 + 32 + 32 + 20 + 32 + 20 + 32\n        string memory message_length = '220';\n\n        bytes32 message_hash = keccak256(abi.encodePacked(\n            signature_prefix,\n            message_length,\n            address(this),\n            chain_id,\n            uint256(MessageTypeId.CooperativeSettle),\n            channel_identifier,\n            participant1,\n            participant1_balance,\n            participant2,\n            participant2_balance\n        ));\n\n        signature_address = ECVerify.ecverify(message_hash, signature);\n    } */\n\n    function recoverAddressFromWithdrawMessage(\n        uint256 channel_identifier,\n        address participant,\n        uint256 total_withdraw,\n        uint256 expiration_block,\n        bytes memory signature\n    )\n        internal\n        view\n        returns (address signature_address)\n    {\n        // Length of the actual message: 20 + 32 + 32 + 32 + 20 + 32 + 32\n        string memory message_length = \"200\";\n\n        bytes32 message_hash = keccak256(abi.encodePacked(\n            signature_prefix,\n            message_length,\n            address(this),\n            chain_id,\n            uint256(MessageTypeId.Withdraw),\n            channel_identifier,\n            participant,\n            total_withdraw,\n            expiration_block\n        ));\n\n        signature_address = ECVerify.ecverify(message_hash, signature);\n    }\n\n    /// @dev Calculates the hash of the pending transfers data and\n    /// calculates the amount of tokens that can be unlocked because the secret\n    /// was registered on-chain.\n    function getHashAndUnlockedAmount(bytes memory locks)\n        internal\n        view\n        returns (bytes32, uint256)\n    {\n        uint256 length = locks.length;\n\n        // each lock has this form:\n        // (locked_amount || expiration_block || secrethash) = 3 * 32 bytes\n        require(length % 96 == 0);\n\n        uint256 i;\n        uint256 total_unlocked_amount;\n        uint256 unlocked_amount;\n        bytes32 total_hash;\n\n        for (i = 32; i < length; i += 96) {\n            unlocked_amount = getLockedAmountFromLock(locks, i);\n            total_unlocked_amount += unlocked_amount;\n        }\n\n        total_hash = keccak256(locks);\n\n        return (total_hash, total_unlocked_amount);\n    }\n\n    function getLockedAmountFromLock(bytes memory locks, uint256 offset)\n        internal\n        view\n        returns (uint256)\n    {\n        uint256 expiration_block;\n        uint256 locked_amount;\n        uint256 reveal_block;\n        bytes32 secrethash;\n\n        if (locks.length <= offset) {\n            return 0;\n        }\n\n        assembly { // solium-disable-line security/no-inline-assembly\n            expiration_block := mload(add(locks, offset))\n            locked_amount := mload(add(locks, add(offset, 32)))\n            secrethash := mload(add(locks, add(offset, 64)))\n        }\n\n        // Check if the lock's secret was revealed in the SecretRegistry The\n        // secret must have been revealed in the SecretRegistry contract before\n        // the lock's expiration_block in order for the hash time lock transfer\n        // to be successful.\n        reveal_block = secret_registry.getSecretRevealBlockHeight(secrethash);\n        if (reveal_block == 0 || expiration_block <= reveal_block) {\n            locked_amount = 0;\n        }\n\n        return locked_amount;\n    }\n\n    function min(uint256 a, uint256 b) internal pure returns (uint256)\n    {\n        return a > b ? b : a;\n    }\n\n    function max(uint256 a, uint256 b) internal pure returns (uint256)\n    {\n        return a > b ? a : b;\n    }\n\n    /// @dev Special subtraction function that does not fail when underflowing.\n    /// @param a Minuend\n    /// @param b Subtrahend\n    /// @return Minimum between the result of the subtraction and 0, the maximum\n    /// subtrahend for which no underflow occurs\n    function failsafe_subtract(uint256 a, uint256 b)\n        internal\n        pure\n        returns (uint256, uint256)\n    {\n        return a > b ? (a - b, b) : (0, a);\n    }\n\n    /// @dev Special addition function that does not fail when overflowing.\n    /// @param a Addend\n    /// @param b Addend\n    /// @return Maximum between the result of the addition or the maximum\n    /// uint256 value\n    function failsafe_addition(uint256 a, uint256 b)\n        internal\n        pure\n        returns (uint256)\n    {\n        uint256 sum = a + b;\n        return sum >= a ? sum : MAX_SAFE_UINT256;\n    }\n}",
  "sourcePath": "contracts/TokenNetwork.sol",
  "abi": [
    {
      "inputs": [
        {
          "internalType": "address",
          "name": "_token_address",
          "type": "address"
        },
        {
          "internalType": "address",
          "name": "_secret_registry",
          "type": "address"
        },
        {
          "internalType": "uint256",
          "name": "_chain_id",
          "type": "uint256"
        },
        {
          "internalType": "uint256",
          "name": "_settlement_timeout_min",
          "type": "uint256"
        },
        {
          "internalType": "uint256",
          "name": "_settlement_timeout_max",
          "type": "uint256"
        },
        {
          "internalType": "address",
          "name": "_deprecation_executor",
          "type": "address"
        },
        {
          "internalType": "uint256",
          "name": "_channel_participant_deposit_limit",
          "type": "uint256"
        },
        {
          "internalType": "uint256",
          "name": "_token_network_deposit_limit",
          "type": "uint256"
        }
      ],
      "stateMutability": "nonpayable",
      "type": "constructor"
    },
    {
      "anonymous": false,
      "inputs": [
        {
          "indexed": true,
          "internalType": "uint256",
          "name": "channel_identifier",
          "type": "uint256"
        },
        {
          "indexed": true,
          "internalType": "address",
          "name": "closing_participant",
          "type": "address"
        },
        {
          "indexed": true,
          "internalType": "uint256",
          "name": "nonce",
          "type": "uint256"
        },
        {
          "indexed": false,
          "internalType": "bytes32",
          "name": "balance_hash",
          "type": "bytes32"
        }
      ],
      "name": "ChannelClosed",
      "type": "event"
    },
    {
      "anonymous": false,
      "inputs": [
        {
          "indexed": true,
          "internalType": "uint256",
          "name": "channel_identifier",
          "type": "uint256"
        },
        {
          "indexed": true,
          "internalType": "address",
          "name": "participant",
          "type": "address"
        },
        {
          "indexed": false,
          "internalType": "uint256",
          "name": "total_deposit",
          "type": "uint256"
        }
      ],
      "name": "ChannelNewDeposit",
      "type": "event"
    },
    {
      "anonymous": false,
      "inputs": [
        {
          "indexed": true,
          "internalType": "uint256",
          "name": "channel_identifier",
          "type": "uint256"
        },
        {
          "indexed": true,
          "internalType": "address",
          "name": "participant1",
          "type": "address"
        },
        {
          "indexed": true,
          "internalType": "address",
          "name": "participant2",
          "type": "address"
        },
        {
          "indexed": false,
          "internalType": "uint256",
          "name": "settle_timeout",
          "type": "uint256"
        }
      ],
      "name": "ChannelOpened",
      "type": "event"
    },
    {
      "anonymous": false,
      "inputs": [
        {
          "indexed": true,
          "internalType": "uint256",
          "name": "channel_identifier",
          "type": "uint256"
        },
        {
          "indexed": false,
          "internalType": "uint256",
          "name": "participant1_amount",
          "type": "uint256"
        },
        {
          "indexed": false,
          "internalType": "bytes32",
          "name": "participant1_locksroot",
          "type": "bytes32"
        },
        {
          "indexed": false,
          "internalType": "uint256",
          "name": "participant2_amount",
          "type": "uint256"
        },
        {
          "indexed": false,
          "internalType": "bytes32",
          "name": "participant2_locksroot",
          "type": "bytes32"
        }
      ],
      "name": "ChannelSettled",
      "type": "event"
    },
    {
      "anonymous": false,
      "inputs": [
        {
          "indexed": true,
          "internalType": "uint256",
          "name": "channel_identifier",
          "type": "uint256"
        },
        {
          "indexed": true,
          "internalType": "address",
          "name": "receiver",
          "type": "address"
        },
        {
          "indexed": true,
          "internalType": "address",
          "name": "sender",
          "type": "address"
        },
        {
          "indexed": false,
          "internalType": "bytes32",
          "name": "locksroot",
          "type": "bytes32"
        },
        {
          "indexed": false,
          "internalType": "uint256",
          "name": "unlocked_amount",
          "type": "uint256"
        },
        {
          "indexed": false,
          "internalType": "uint256",
          "name": "returned_tokens",
          "type": "uint256"
        }
      ],
      "name": "ChannelUnlocked",
      "type": "event"
    },
    {
      "anonymous": false,
      "inputs": [
        {
          "indexed": true,
          "internalType": "uint256",
          "name": "channel_identifier",
          "type": "uint256"
        },
        {
          "indexed": true,
          "internalType": "address",
          "name": "participant",
          "type": "address"
        },
        {
          "indexed": false,
          "internalType": "uint256",
          "name": "total_withdraw",
          "type": "uint256"
        }
      ],
      "name": "ChannelWithdraw",
      "type": "event"
    },
    {
      "anonymous": false,
      "inputs": [
        {
          "indexed": false,
          "internalType": "bool",
          "name": "new_value",
          "type": "bool"
        }
      ],
      "name": "DeprecationSwitch",
      "type": "event"
    },
    {
      "anonymous": false,
      "inputs": [
        {
          "indexed": true,
          "internalType": "uint256",
          "name": "channel_identifier",
          "type": "uint256"
        },
        {
          "indexed": true,
          "internalType": "address",
          "name": "closing_participant",
          "type": "address"
        },
        {
          "indexed": true,
          "internalType": "uint256",
          "name": "nonce",
          "type": "uint256"
        },
        {
          "indexed": false,
          "internalType": "bytes32",
          "name": "balance_hash",
          "type": "bytes32"
        }
      ],
      "name": "NonClosingBalanceProofUpdated",
      "type": "event"
    },
    {
      "inputs": [],
      "name": "MAX_SAFE_UINT256",
      "outputs": [
        {
          "internalType": "uint256",
          "name": "",
          "type": "uint256"
        }
      ],
      "stateMutability": "view",
      "type": "function"
    },
    {
      "inputs": [],
      "name": "chain_id",
      "outputs": [
        {
          "internalType": "uint256",
          "name": "",
          "type": "uint256"
        }
      ],
      "stateMutability": "view",
      "type": "function"
    },
    {
      "inputs": [],
      "name": "channel_counter",
      "outputs": [
        {
          "internalType": "uint256",
          "name": "",
          "type": "uint256"
        }
      ],
      "stateMutability": "view",
      "type": "function"
    },
    {
      "inputs": [],
      "name": "channel_participant_deposit_limit",
      "outputs": [
        {
          "internalType": "uint256",
          "name": "",
          "type": "uint256"
        }
      ],
      "stateMutability": "view",
      "type": "function"
    },
    {
      "inputs": [
        {
          "internalType": "uint256",
          "name": "",
          "type": "uint256"
        }
      ],
      "name": "channels",
      "outputs": [
        {
          "internalType": "uint256",
          "name": "settle_block_number",
          "type": "uint256"
        },
        {
          "internalType": "enum TokenNetwork.ChannelState",
          "name": "state",
          "type": "uint8"
        }
      ],
      "stateMutability": "view",
      "type": "function"
    },
    {
      "inputs": [
        {
          "internalType": "uint256",
          "name": "channel_identifier",
          "type": "uint256"
        },
        {
          "internalType": "address",
          "name": "non_closing_participant",
          "type": "address"
        },
        {
          "internalType": "address",
          "name": "closing_participant",
          "type": "address"
        },
        {
          "internalType": "bytes32",
          "name": "balance_hash",
          "type": "bytes32"
        },
        {
          "internalType": "uint256",
          "name": "nonce",
          "type": "uint256"
        },
        {
          "internalType": "bytes32",
          "name": "additional_hash",
          "type": "bytes32"
        },
        {
          "internalType": "bytes",
          "name": "non_closing_signature",
          "type": "bytes"
        },
        {
          "internalType": "bytes",
          "name": "closing_signature",
          "type": "bytes"
        }
      ],
      "name": "closeChannel",
      "outputs": [],
      "stateMutability": "nonpayable",
      "type": "function"
    },
    {
      "inputs": [
        {
          "internalType": "address",
          "name": "contract_address",
          "type": "address"
        }
      ],
      "name": "contractExists",
      "outputs": [
        {
          "internalType": "bool",
          "name": "",
          "type": "bool"
        }
      ],
      "stateMutability": "view",
      "type": "function"
    },
    {
      "inputs": [],
      "name": "deprecate",
      "outputs": [],
      "stateMutability": "nonpayable",
      "type": "function"
    },
    {
      "inputs": [],
      "name": "deprecation_executor",
      "outputs": [
        {
          "internalType": "address",
          "name": "",
          "type": "address"
        }
      ],
      "stateMutability": "view",
      "type": "function"
    },
    {
      "inputs": [
        {
          "internalType": "address",
          "name": "participant",
          "type": "address"
        },
        {
          "internalType": "address",
          "name": "partner",
          "type": "address"
        }
      ],
      "name": "getChannelIdentifier",
      "outputs": [
        {
          "internalType": "uint256",
          "name": "",
          "type": "uint256"
        }
      ],
      "stateMutability": "view",
      "type": "function"
    },
    {
      "inputs": [
        {
          "internalType": "uint256",
          "name": "channel_identifier",
          "type": "uint256"
        },
        {
          "internalType": "address",
          "name": "participant1",
          "type": "address"
        },
        {
          "internalType": "address",
          "name": "participant2",
          "type": "address"
        }
      ],
      "name": "getChannelInfo",
      "outputs": [
        {
          "internalType": "uint256",
          "name": "",
          "type": "uint256"
        },
        {
          "internalType": "enum TokenNetwork.ChannelState",
          "name": "",
          "type": "uint8"
        }
      ],
      "stateMutability": "view",
      "type": "function"
    },
    {
      "inputs": [
        {
          "internalType": "uint256",
          "name": "channel_identifier",
          "type": "uint256"
        },
        {
          "internalType": "address",
          "name": "participant",
          "type": "address"
        },
        {
          "internalType": "address",
          "name": "partner",
          "type": "address"
        }
      ],
      "name": "getChannelParticipantInfo",
      "outputs": [
        {
          "internalType": "uint256",
          "name": "",
          "type": "uint256"
        },
        {
          "internalType": "uint256",
          "name": "",
          "type": "uint256"
        },
        {
          "internalType": "bool",
          "name": "",
          "type": "bool"
        },
        {
          "internalType": "bytes32",
          "name": "",
          "type": "bytes32"
        },
        {
          "internalType": "uint256",
          "name": "",
          "type": "uint256"
        },
        {
          "internalType": "bytes32",
          "name": "",
          "type": "bytes32"
        },
        {
          "internalType": "uint256",
          "name": "",
          "type": "uint256"
        }
      ],
      "stateMutability": "view",
      "type": "function"
    },
    {
      "inputs": [
        {
          "internalType": "address",
          "name": "participant",
          "type": "address"
        },
        {
          "internalType": "address",
          "name": "partner",
          "type": "address"
        }
      ],
      "name": "getParticipantsHash",
      "outputs": [
        {
          "internalType": "bytes32",
          "name": "",
          "type": "bytes32"
        }
      ],
      "stateMutability": "pure",
      "type": "function"
    },
    {
      "inputs": [
        {
          "internalType": "uint256",
          "name": "channel_identifier",
          "type": "uint256"
        },
        {
          "internalType": "address",
          "name": "sender",
          "type": "address"
        },
        {
          "internalType": "address",
          "name": "receiver",
          "type": "address"
        }
      ],
      "name": "getUnlockIdentifier",
      "outputs": [
        {
          "internalType": "bytes32",
          "name": "",
          "type": "bytes32"
        }
      ],
      "stateMutability": "pure",
      "type": "function"
    },
    {
      "inputs": [
        {
          "internalType": "address",
          "name": "participant1",
          "type": "address"
        },
        {
          "internalType": "address",
          "name": "participant2",
          "type": "address"
        },
        {
          "internalType": "uint256",
          "name": "settle_timeout",
          "type": "uint256"
        }
      ],
      "name": "openChannel",
      "outputs": [
        {
          "internalType": "uint256",
          "name": "",
          "type": "uint256"
        }
      ],
      "stateMutability": "nonpayable",
      "type": "function"
    },
    {
      "inputs": [
        {
          "internalType": "bytes32",
          "name": "",
          "type": "bytes32"
        }
      ],
      "name": "participants_hash_to_channel_identifier",
      "outputs": [
        {
          "internalType": "uint256",
          "name": "",
          "type": "uint256"
        }
      ],
      "stateMutability": "view",
      "type": "function"
    },
    {
      "inputs": [],
      "name": "safety_deprecation_switch",
      "outputs": [
        {
          "internalType": "bool",
          "name": "",
          "type": "bool"
        }
      ],
      "stateMutability": "view",
      "type": "function"
    },
    {
      "inputs": [],
      "name": "secret_registry",
      "outputs": [
        {
          "internalType": "contract SecretRegistry",
          "name": "",
          "type": "address"
        }
      ],
      "stateMutability": "view",
      "type": "function"
    },
    {
      "inputs": [
        {
          "internalType": "uint256",
          "name": "channel_identifier",
          "type": "uint256"
        },
        {
          "internalType": "address",
          "name": "participant",
          "type": "address"
        },
        {
          "internalType": "uint256",
          "name": "total_deposit",
          "type": "uint256"
        },
        {
          "internalType": "address",
          "name": "partner",
          "type": "address"
        }
      ],
      "name": "setTotalDeposit",
      "outputs": [],
      "stateMutability": "nonpayable",
      "type": "function"
    },
    {
      "inputs": [
        {
          "internalType": "uint256",
          "name": "channel_identifier",
          "type": "uint256"
        },
        {
          "internalType": "address",
          "name": "participant",
          "type": "address"
        },
        {
          "internalType": "uint256",
          "name": "total_withdraw",
          "type": "uint256"
        },
        {
          "internalType": "uint256",
          "name": "expiration_block",
          "type": "uint256"
        },
        {
          "internalType": "bytes",
          "name": "participant_signature",
          "type": "bytes"
        },
        {
          "internalType": "bytes",
          "name": "partner_signature",
          "type": "bytes"
        }
      ],
      "name": "setTotalWithdraw",
      "outputs": [],
      "stateMutability": "nonpayable",
      "type": "function"
    },
    {
      "inputs": [
        {
          "internalType": "uint256",
          "name": "channel_identifier",
          "type": "uint256"
        },
        {
          "internalType": "address",
          "name": "participant1",
          "type": "address"
        },
        {
          "internalType": "uint256",
          "name": "participant1_transferred_amount",
          "type": "uint256"
        },
        {
          "internalType": "uint256",
          "name": "participant1_locked_amount",
          "type": "uint256"
        },
        {
          "internalType": "bytes32",
          "name": "participant1_locksroot",
          "type": "bytes32"
        },
        {
          "internalType": "address",
          "name": "participant2",
          "type": "address"
        },
        {
          "internalType": "uint256",
          "name": "participant2_transferred_amount",
          "type": "uint256"
        },
        {
          "internalType": "uint256",
          "name": "participant2_locked_amount",
          "type": "uint256"
        },
        {
          "internalType": "bytes32",
          "name": "participant2_locksroot",
          "type": "bytes32"
        }
      ],
      "name": "settleChannel",
      "outputs": [],
      "stateMutability": "nonpayable",
      "type": "function"
    },
    {
      "inputs": [
        {
          "internalType": "uint256",
          "name": "channel_identifier",
          "type": "uint256"
        },
        {
          "components": [
            {
              "internalType": "address",
              "name": "participant",
              "type": "address"
            },
            {
              "internalType": "uint256",
              "name": "transferred_amount",
              "type": "uint256"
            },
            {
              "internalType": "uint256",
              "name": "locked_amount",
              "type": "uint256"
            },
            {
              "internalType": "bytes32",
              "name": "locksroot",
              "type": "bytes32"
            }
          ],
          "internalType": "struct TokenNetwork.SettleInput",
          "name": "participant1_settlement",
          "type": "tuple"
        },
        {
          "components": [
            {
              "internalType": "address",
              "name": "participant",
              "type": "address"
            },
            {
              "internalType": "uint256",
              "name": "transferred_amount",
              "type": "uint256"
            },
            {
              "internalType": "uint256",
              "name": "locked_amount",
              "type": "uint256"
            },
            {
              "internalType": "bytes32",
              "name": "locksroot",
              "type": "bytes32"
            }
          ],
          "internalType": "struct TokenNetwork.SettleInput",
          "name": "participant2_settlement",
          "type": "tuple"
        }
      ],
      "name": "settleChannel2",
      "outputs": [],
      "stateMutability": "nonpayable",
      "type": "function"
    },
    {
      "inputs": [],
      "name": "settlement_timeout_max",
      "outputs": [
        {
          "internalType": "uint256",
          "name": "",
          "type": "uint256"
        }
      ],
      "stateMutability": "view",
      "type": "function"
    },
    {
      "inputs": [],
      "name": "settlement_timeout_min",
      "outputs": [
        {
          "internalType": "uint256",
          "name": "",
          "type": "uint256"
        }
      ],
      "stateMutability": "view",
      "type": "function"
    },
    {
      "inputs": [],
      "name": "signature_prefix",
      "outputs": [
        {
          "internalType": "string",
          "name": "",
          "type": "string"
        }
      ],
      "stateMutability": "view",
      "type": "function"
    },
    {
      "inputs": [],
      "name": "token",
      "outputs": [
        {
          "internalType": "contract ERC20",
          "name": "",
          "type": "address"
        }
      ],
      "stateMutability": "view",
      "type": "function"
    },
    {
      "inputs": [],
      "name": "token_network_deposit_limit",
      "outputs": [
        {
          "internalType": "uint256",
          "name": "",
          "type": "uint256"
        }
      ],
      "stateMutability": "view",
      "type": "function"
    },
    {
      "inputs": [
        {
          "internalType": "uint256",
          "name": "channel_identifier",
          "type": "uint256"
        },
        {
          "internalType": "address",
          "name": "receiver",
          "type": "address"
        },
        {
          "internalType": "address",
          "name": "sender",
          "type": "address"
        },
        {
          "internalType": "bytes",
          "name": "locks",
          "type": "bytes"
        }
      ],
      "name": "unlock",
      "outputs": [],
      "stateMutability": "nonpayable",
      "type": "function"
    },
    {
      "inputs": [
        {
          "internalType": "uint256",
          "name": "channel_identifier",
          "type": "uint256"
        },
        {
          "internalType": "address",
          "name": "closing_participant",
          "type": "address"
        },
        {
          "internalType": "address",
          "name": "non_closing_participant",
          "type": "address"
        },
        {
          "internalType": "bytes32",
          "name": "balance_hash",
          "type": "bytes32"
        },
        {
          "internalType": "uint256",
          "name": "nonce",
          "type": "uint256"
        },
        {
          "internalType": "bytes32",
          "name": "additional_hash",
          "type": "bytes32"
        },
        {
          "internalType": "bytes",
          "name": "closing_signature",
          "type": "bytes"
        },
        {
          "internalType": "bytes",
          "name": "non_closing_signature",
          "type": "bytes"
        }
      ],
      "name": "updateNonClosingBalanceProof",
      "outputs": [],
      "stateMutability": "nonpayable",
      "type": "function"
    }
  ],
  "bytecode": "0x60806040526000600860146101000a81548160ff0219169083151502179055503480156200002c57600080fd5b506040516200414438038062004144833981810160405281019062000052919062000370565b600073ffffffffffffffffffffffffffffffffffffffff168873ffffffffffffffffffffffffffffffffffffffff1614156200008d57600080fd5b600073ffffffffffffffffffffffffffffffffffffffff168773ffffffffffffffffffffffffffffffffffffffff161415620000c857600080fd5b600073ffffffffffffffffffffffffffffffffffffffff168373ffffffffffffffffffffffffffffffffffffffff1614156200010357600080fd5b600086116200011157600080fd5b600085116200011f57600080fd5b8484116200012c57600080fd5b6200013d886200032f60201b60201c565b6200014757600080fd5b62000158876200032f60201b60201c565b6200016257600080fd5b600082116200017057600080fd5b600081116200017e57600080fd5b818110156200018c57600080fd5b876000806101000a81548173ffffffffffffffffffffffffffffffffffffffff021916908373ffffffffffffffffffffffffffffffffffffffff16021790555086600160006101000a81548173ffffffffffffffffffffffffffffffffffffffff021916908373ffffffffffffffffffffffffffffffffffffffff16021790555085600281905550846003819055508360048190555060008060009054906101000a900473ffffffffffffffffffffffffffffffffffffffff1673ffffffffffffffffffffffffffffffffffffffff166318160ddd6040518163ffffffff1660e01b815260040160206040518083038186803b1580156200028c57600080fd5b505afa158015620002a1573d6000803e3d6000fd5b505050506040513d601f19601f82011682018060405250810190620002c7919062000433565b11620002d257600080fd5b82600860006101000a81548173ffffffffffffffffffffffffffffffffffffffff021916908373ffffffffffffffffffffffffffffffffffffffff16021790555081600581905550806006819055505050505050505050620004d1565b600080823b905060008111915050919050565b60008151905062000353816200049d565b92915050565b6000815190506200036a81620004b7565b92915050565b600080600080600080600080610100898b0312156200038e57600080fd5b60006200039e8b828c0162000342565b9850506020620003b18b828c0162000342565b9750506040620003c48b828c0162000359565b9650506060620003d78b828c0162000359565b9550506080620003ea8b828c0162000359565b94505060a0620003fd8b828c0162000342565b93505060c0620004108b828c0162000359565b92505060e0620004238b828c0162000359565b9150509295985092959890939650565b6000602082840312156200044657600080fd5b6000620004568482850162000359565b91505092915050565b60006200046c8262000473565b9050919050565b600073ffffffffffffffffffffffffffffffffffffffff82169050919050565b6000819050919050565b620004a8816200045f565b8114620004b457600080fd5b50565b620004c28162000493565b8114620004ce57600080fd5b50565b613c6380620004e16000396000f3fe608060405234801561001057600080fd5b50600436106101cf5760003560e01c80637c4734f411610104578063b7506d70116100a2578063ee4516d911610071578063ee4516d914610522578063fadc554b14610558578063fc0c546a14610574578063fe49ba1c14610592576101cf565b8063b7506d7014610499578063b8378f75146104b7578063ca463cce146104d5578063e5949b5d146104f1576101cf565b806387234237116100de5780638723423714610413578063938bcd67146104315780639cadb159146104615780639e67ca5f1461047d576101cf565b80637c4734f41461039657806382fd7795146103c6578063838d6e05146103e2576101cf565b80634845be761161017157806363ea01431161014b57806363ea01431461030e578063679b37631461032a57806371e75992146103485780637709bc7814610366576101cf565b80634845be76146102a2578063524bef8a146102c05780635d6e441b146102f0576101cf565b8063224df42f116101ad578063224df42f1461022a57806323aa81741461024857806324d73a93146102665780633af973b114610284576101cf565b806303d9d253146101d45780630a798f24146101f05780630fcc0c2814610220575b600080fd5b6101ee60048036038101906101e99190613039565b6105c2565b005b61020a60048036038101906102059190612d2a565b6108c2565b6040516102179190613891565b60405180910390f35b610228610b0f565b005b610232610bec565b60405161023f9190613891565b60405180910390f35b610250610bf2565b60405161025d919061370c565b60405180910390f35b61026e610c18565b60405161027b9190613854565b60405180910390f35b61028c610c3e565b6040516102999190613891565b60405180910390f35b6102aa610c44565b6040516102b79190613891565b60405180910390f35b6102da60048036038101906102d59190612da2565b610c4a565b6040516102e79190613891565b60405180910390f35b6102f8610c62565b6040516103059190613891565b60405180910390f35b610328600480360381019061032391906130b4565b610c68565b005b610332610fcf565b60405161033f9190613891565b60405180910390f35b610350610fd5565b60405161035d9190613891565b60405180910390f35b610380600480360381019061037b9190612cc5565b610ff9565b60405161038d9190613787565b60405180910390f35b6103b060048036038101906103ab9190612cee565b61100c565b6040516103bd91906137a2565b60405180910390f35b6103e060048036038101906103db9190612f57565b611150565b005b6103fc60048036038101906103f79190612e1d565b611360565b60405161040a9291906138f1565b60405180910390f35b61041b611453565b604051610428919061386f565b60405180910390f35b61044b60048036038101906104469190612cee565b61148c565b6040516104589190613891565b60405180910390f35b61047b60048036038101906104769190613117565b611565565b005b610497600480360381019061049291906131dd565b6115e7565b005b6104a1611999565b6040516104ae9190613787565b60405180910390f35b6104bf6119ac565b6040516104cc9190613891565b60405180910390f35b6104ef60048036038101906104ea91906132a0565b6119b2565b005b61050b60048036038101906105069190612dcb565b611e6e565b6040516105199291906138f1565b60405180910390f35b61053c60048036038101906105379190612e1d565b611e9f565b60405161054f979695949392919061391a565b60405180910390f35b610572600480360381019061056d9190612e6c565b611f74565b005b61057c61222e565b6040516105899190613839565b60405180910390f35b6105ac60048036038101906105a79190612e1d565b612253565b6040516105b991906137a2565b60405180910390f35b6105cc838361148c565b8414156105d857600080fd5b600060048111156105e557fe5b6009600086815260200190815260200160002060010160009054906101000a900460ff16600481111561061457fe5b1461061e57600080fd5b600080600080600061062f866122c2565b809450819550505061064289888a612253565b94506000600b60008781526020019081526020016000209050806001015492508481600001541461067257600080fd5b6000831161067f57600080fd5b610689848461232b565b93508383039150600b6000878152602001908152602001600020600080820160009055600182016000905550508773ffffffffffffffffffffffffffffffffffffffff168973ffffffffffffffffffffffffffffffffffffffff168b7f8c03cf01b3d4e6068cc494e6fe02aa9e3d4af069d37c32ecc3b241af5c37e6c0888887604051610718939291906137bd565b60405180910390a460008411156107e1576000809054906101000a900473ffffffffffffffffffffffffffffffffffffffff1673ffffffffffffffffffffffffffffffffffffffff1663a9059cbb8a866040518363ffffffff1660e01b815260040161078592919061375e565b602060405180830381600087803b15801561079f57600080fd5b505af11580156107b3573d6000803e3d6000fd5b505050506040513d601f19601f820116820180604052508101906107d79190612d79565b6107e057600080fd5b5b60008211156108a2576000809054906101000a900473ffffffffffffffffffffffffffffffffffffffff1673ffffffffffffffffffffffffffffffffffffffff1663a9059cbb89846040518363ffffffff1660e01b815260040161084692919061375e565b602060405180830381600087803b15801561086057600080fd5b505af1158015610874573d6000803e3d6000fd5b505050506040513d601f19601f820116820180604052508101906108989190612d79565b6108a157600080fd5b5b818310156108ac57fe5b838310156108b657fe5b50505050505050505050565b6000801515600860149054906101000a900460ff161515146108e357600080fd5b816003548110156108f357600080fd5b60045481111561090257600080fd5b6000806006546000809054906101000a900473ffffffffffffffffffffffffffffffffffffffff1673ffffffffffffffffffffffffffffffffffffffff166370a08231306040518263ffffffff1660e01b8152600401610962919061370c565b60206040518083038186803b15801561097a57600080fd5b505afa15801561098e573d6000803e3d6000fd5b505050506040513d601f19601f820116820180604052508101906109b29190612df4565b106109bc57600080fd5b600160076000828254019250508190555060075490506109dc878761100c565b91506000600a600084815260200190815260200160002054146109fe57600080fd5b80600a60008481526020019081526020016000208190555060006009600083815260200190815260200160002090506000816000015414610a3b57fe5b60006004811115610a4857fe5b8160010160009054906101000a900460ff166004811115610a6557fe5b14610a6c57fe5b85816000018190555060018160010160006101000a81548160ff02191690836004811115610a9657fe5b02179055508673ffffffffffffffffffffffffffffffffffffffff168873ffffffffffffffffffffffffffffffffffffffff16837f669a4b0ac0b9994c0f82ed4dbe07bb421fe74e5951725af4f139c7443ebf049d89604051610af99190613891565b60405180910390a4819450505050509392505050565b60001515600860149054906101000a900460ff16151514610b2f57600080fd5b600860009054906101000a900473ffffffffffffffffffffffffffffffffffffffff1673ffffffffffffffffffffffffffffffffffffffff163373ffffffffffffffffffffffffffffffffffffffff1614610b8957600080fd5b6001600860146101000a81548160ff0219169083151502179055507f6151930a846a85f5e64d2dd1cc5deeafb010c63eec4b600458158edd0e33f15d600860149054906101000a900460ff16604051610be29190613787565b60405180910390a1565b60045481565b600860009054906101000a900473ffffffffffffffffffffffffffffffffffffffff1681565b600160009054906101000a900473ffffffffffffffffffffffffffffffffffffffff1681565b60025481565b60065481565b600a6020528060005260406000206000915090505481565b60055481565b60001515600860149054906101000a900460ff16151514610c8857600080fd5b8360016004811115610c9657fe5b6009600083815260200190815260200160002060010160009054906101000a900460ff166004811115610cc557fe5b14610ccf57600080fd5b610cd9848361148c565b8514610ce457600080fd5b60008311610cf157600080fd5b600554831115610d0057600080fd5b600080600060096000898152602001908152602001600020905060008160020160008973ffffffffffffffffffffffffffffffffffffffff1673ffffffffffffffffffffffffffffffffffffffff168152602001908152602001600020905060008260020160008873ffffffffffffffffffffffffffffffffffffffff1673ffffffffffffffffffffffffffffffffffffffff168152602001908152602001600020905081600001548803945060008511610dba57600080fd5b87851115610dc757600080fd5b878583600001540114610dd657fe5b600654856000809054906101000a900473ffffffffffffffffffffffffffffffffffffffff1673ffffffffffffffffffffffffffffffffffffffff166370a08231306040518263ffffffff1660e01b8152600401610e34919061370c565b60206040518083038186803b158015610e4c57600080fd5b505afa158015610e60573d6000803e3d6000fd5b505050506040513d601f19601f82011682018060405250810190610e849190612df4565b011115610e9057600080fd5b878260000181905550806000015482600001540193508160000154841015610eb757600080fd5b8873ffffffffffffffffffffffffffffffffffffffff168a7f2b55547a3b586ab51f65ee9ce4927fa6d25191388299988e89e059a02f9dd4458460000154604051610f029190613891565b60405180910390a36000809054906101000a900473ffffffffffffffffffffffffffffffffffffffff1673ffffffffffffffffffffffffffffffffffffffff166323b872dd3330886040518463ffffffff1660e01b8152600401610f6893929190613727565b602060405180830381600087803b158015610f8257600080fd5b505af1158015610f96573d6000803e3d6000fd5b505050506040513d601f19601f82011682018060405250810190610fba9190612d79565b610fc357600080fd5b50505050505050505050565b60075481565b7fffffffffffffffffffffffffffffffffffffffffffffffffffffffffffffffff81565b600080823b905060008111915050919050565b60008073ffffffffffffffffffffffffffffffffffffffff168373ffffffffffffffffffffffffffffffffffffffff16141561104757600080fd5b600073ffffffffffffffffffffffffffffffffffffffff168273ffffffffffffffffffffffffffffffffffffffff16141561108157600080fd5b8173ffffffffffffffffffffffffffffffffffffffff168373ffffffffffffffffffffffffffffffffffffffff1614156110ba57600080fd5b8173ffffffffffffffffffffffffffffffffffffffff168373ffffffffffffffffffffffffffffffffffffffff16101561111e578282604051602001611101929190613488565b60405160208183030381529060405280519060200120905061114a565b8183604051602001611131929190613488565b6040516020818303038152906040528051906020012090505b92915050565b876001600481111561115e57fe5b6009600083815260200190815260200160002060010160009054906101000a900460ff16600481111561118d57fe5b1461119757600080fd5b6111a1878961148c565b89146111ac57600080fd5b600080600960008c8152602001908152602001600020905060028160010160006101000a81548160ff021916908360048111156111e557fe5b021790555060018160020160008b73ffffffffffffffffffffffffffffffffffffffff1673ffffffffffffffffffffffffffffffffffffffff16815260200190815260200160002060020160006101000a81548160ff021916908315150217905550438160000160008282540192505081905550600061126b60018d8b8b8b8b8b612344565b90508073ffffffffffffffffffffffffffffffffffffffff168a73ffffffffffffffffffffffffffffffffffffffff16146112a557600080fd5b6000881115611302576112bb8c8a8a8a8a612418565b92508273ffffffffffffffffffffffffffffffffffffffff168b73ffffffffffffffffffffffffffffffffffffffff16146112f557600080fd5b61130182848a8c6124e9565b5b878a73ffffffffffffffffffffffffffffffffffffffff168d7f09d2f946e008c38931cd739dd20e35146deff8ab3134caee6d54fe50816a81b88c60405161134a91906137a2565b60405180910390a4505050505050505050505050565b600080600080600060096000898152602001908152602001600020905060008160010160009054906101000a900460ff169050600060048111156113a057fe5b8160048111156113ac57fe5b1480156113b95750600089115b80156113c757506007548911155b1561143d57600390506113db898989612253565b93506000600b600086815260200190815260200160002090506113ff8a898b612253565b93506000600b6000868152602001908152602001600020905060008260010154148015611430575060008160010154145b1561143a57600492505b50505b8160000154819550955050505050935093915050565b6040518060400160405280601a81526020017f19457468657265756d205369676e6564204d6573736167653a0a00000000000081525081565b60008073ffffffffffffffffffffffffffffffffffffffff168373ffffffffffffffffffffffffffffffffffffffff1614156114c757600080fd5b600073ffffffffffffffffffffffffffffffffffffffff168273ffffffffffffffffffffffffffffffffffffffff16141561150157600080fd5b8173ffffffffffffffffffffffffffffffffffffffff168373ffffffffffffffffffffffffffffffffffffffff16141561153a57600080fd5b6000611546848461100c565b9050600a60008281526020019081526020016000205491505092915050565b6115dc8960405180608001604052808b73ffffffffffffffffffffffffffffffffffffffff1681526020018a81526020018981526020018881525060405180608001604052808873ffffffffffffffffffffffffffffffffffffffff168152602001878152602001868152602001858152506119b2565b505050505050505050565b87600160048111156115f557fe5b6009600083815260200190815260200160002060010160009054906101000a900460ff16600481111561162457fe5b1461162e57600080fd5b6000806000808a1161163f57600080fd5b88431061164b57600080fd5b61169c8c8c8c8c8c8c8080601f016020809104026020016040519081016040528093929190818152602001838380828437600081840152601f19601f82011690508083019250505050505050612557565b73ffffffffffffffffffffffffffffffffffffffff168b73ffffffffffffffffffffffffffffffffffffffff16146116d357600080fd5b6117248c8c8c8c8a8a8080601f016020809104026020016040519081016040528093929190818152602001838380828437600081840152601f19601f82011690508083019250505050505050612557565b90506117308b8261148c565b8c1461173b57600080fd5b6000600960008e8152602001908152602001600020905060008160020160008e73ffffffffffffffffffffffffffffffffffffffff1673ffffffffffffffffffffffffffffffffffffffff168152602001908152602001600020905060008260020160008573ffffffffffffffffffffffffffffffffffffffff1673ffffffffffffffffffffffffffffffffffffffff1681526020019081526020016000209050806000015482600001540195508581600101548e0111156117fc57600080fd5b80600101548d018d111561180f57600080fd5b81600101548d0394508c85111561182557600080fd5b6000851161183257600080fd5b8c858360010154011461184157fe5b8d73ffffffffffffffffffffffffffffffffffffffff168f7f98ed0357b86b313fa9f968de5c9d2bcf591432355b34aa1ab7e3e9e92f4284088f6040516118889190613891565b60405180910390a38c82600101819055506000809054906101000a900473ffffffffffffffffffffffffffffffffffffffff1673ffffffffffffffffffffffffffffffffffffffff1663a9059cbb8f876040518363ffffffff1660e01b81526004016118f592919061375e565b602060405180830381600087803b15801561190f57600080fd5b505af1158015611923573d6000803e3d6000fd5b505050506040513d601f19601f820116820180604052508101906119479190612d79565b61195057600080fd5b816000015486101561195e57fe5b806000015486101561196c57fe5b600082600401541461197a57fe5b600081600401541461198857fe5b505050505050505050505050505050565b600860149054906101000a900460ff1681565b60035481565b6000826000015190506000826000015190506119ce828261148c565b85146119d957600080fd5b60006119e5838361100c565b9050600060096000888152602001908152602001600020905060026004811115611a0b57fe5b8160010160009054906101000a900460ff166004811115611a2857fe5b14611a3257600080fd5b43816000015410611a4257600080fd5b60008160020160008673ffffffffffffffffffffffffffffffffffffffff1673ffffffffffffffffffffffffffffffffffffffff168152602001908152602001600020905060008260020160008673ffffffffffffffffffffffffffffffffffffffff1673ffffffffffffffffffffffffffffffffffffffff1681526020019081526020016000209050611ad68289612628565b611adf57600080fd5b611ae98188612628565b611af257600080fd5b611b108289602001518a60400151848b602001518c604001516126a8565b8b6020018b6020018d6040018d60400184815250848152508481525084815250505050508260020160008773ffffffffffffffffffffffffffffffffffffffff1673ffffffffffffffffffffffffffffffffffffffff16815260200190815260200160002060008082016000905560018201600090556002820160006101000a81549060ff02191690556003820160009055600482016000905550508260020160008673ffffffffffffffffffffffffffffffffffffffff1673ffffffffffffffffffffffffffffffffffffffff16815260200190815260200160002060008082016000905560018201600090556002820160006101000a81549060ff0219169055600382016000905560048201600090555050600960008a81526020019081526020016000206000808201600090556001820160006101000a81549060ff02191690555050600a600085815260200190815260200160002060009055611c788989876127b1565b611c838988886127b1565b887f8db0e7d323ca765ce9ab550780131837e4942ccfea3be2b635ec1084c81f726289602001518a606001518a602001518b60600151604051611cc994939291906138ac565b60405180910390a2600088602001511115611d9a576000809054906101000a900473ffffffffffffffffffffffffffffffffffffffff1673ffffffffffffffffffffffffffffffffffffffff1663a9059cbb878a602001516040518363ffffffff1660e01b8152600401611d3e92919061375e565b602060405180830381600087803b158015611d5857600080fd5b505af1158015611d6c573d6000803e3d6000fd5b505050506040513d601f19601f82011682018060405250810190611d909190612d79565b611d9957600080fd5b5b600087602001511115611e63576000809054906101000a900473ffffffffffffffffffffffffffffffffffffffff1673ffffffffffffffffffffffffffffffffffffffff1663a9059cbb8689602001516040518363ffffffff1660e01b8152600401611e0792919061375e565b602060405180830381600087803b158015611e2157600080fd5b505af1158015611e35573d6000803e3d6000fd5b505050506040513d601f19601f82011682018060405250810190611e599190612d79565b611e6257600080fd5b5b505050505050505050565b60096020528060005260406000206000915090508060000154908060010160009054906101000a900460ff16905082565b6000806000806000806000806000600960008d815260200190815260200160002060020160008c73ffffffffffffffffffffffffffffffffffffffff1673ffffffffffffffffffffffffffffffffffffffff1681526020019081526020016000209050611f0d8c8c8c612253565b91506000600b60008481526020019081526020016000209050816000015482600101548360020160009054906101000a900460ff16846003015485600401548560000154866001015499509950995099509950995099505050509397509397509397909450565b611f7e898961148c565b8a14611f8957600080fd5b6000801b871415611f9957600080fd5b60008611611fa657600080fd5b6000806000600960008e8152602001908152602001600020905060026004811115611fcd57fe5b8160010160009054906101000a900460ff166004811115611fea57fe5b14611ff457600080fd5b438160000154101561200557600080fd5b61209d60028e8c8c8c8c8c8080601f016020809104026020016040519081016040528093929190818152602001838380828437600081840152601f19601f820116905080830192505050505050508b8b8080601f016020809104026020016040519081016040528093929190818152602001838380828437600081840152601f19601f82011690508083019250505050505050612344565b92508273ffffffffffffffffffffffffffffffffffffffff168b73ffffffffffffffffffffffffffffffffffffffff16146120d757600080fd5b6121288d8b8b8b8b8b8080601f016020809104026020016040519081016040528093929190818152602001838380828437600081840152601f19601f82011690508083019250505050505050612418565b91508173ffffffffffffffffffffffffffffffffffffffff168c73ffffffffffffffffffffffffffffffffffffffff161461216257600080fd5b60008160020160008e73ffffffffffffffffffffffffffffffffffffffff1673ffffffffffffffffffffffffffffffffffffffff16815260200190815260200160002090508060020160009054906101000a900460ff166121c257600080fd5b6121ce828e8c8e6124e9565b898d73ffffffffffffffffffffffffffffffffffffffff168f7f6fc5b4f4f9e65bfdc4c45456373906876cee8832b605478e281902468875eaed8e60405161221691906137a2565b60405180910390a45050505050505050505050505050565b6000809054906101000a900473ffffffffffffffffffffffffffffffffffffffff1681565b60008173ffffffffffffffffffffffffffffffffffffffff168373ffffffffffffffffffffffffffffffffffffffff16141561228e57600080fd5b8383836040516020016122a393929190613692565b6040516020818303038152906040528051906020012090509392505050565b6000806000835190506000606082816122d757fe5b06146122e257600080fd5b600080600080602093505b84841015612311576122ff888561280f565b915081830192506060840193506122ed565b878051906020012090508083965096505050505050915091565b600081831161233a578261233c565b815b905092915050565b600060606040518060400160405280600381526020017f3237370000000000000000000000000000000000000000000000000000000000815250905060006040518060400160405280601a81526020017f19457468657265756d205369676e6564204d6573736167653a0a00000000000081525082306002548d60068111156123c957fe5b8d8d8d8d8d6040516020016123e79a999897969594939291906135ea565b6040516020818303038152906040528051906020012090506124098185612918565b92505050979650505050505050565b600060606040518060400160405280600381526020017f3231320000000000000000000000000000000000000000000000000000000000815250905060006040518060400160405280601a81526020017f19457468657265756d205369676e6564204d6573736167653a0a00000000000081525082306002546001600681111561249e57fe5b8c8c8c8c6040516020016124ba9998979695949392919061354f565b6040516020818303038152906040528051906020012090506124dc8185612918565b9250505095945050505050565b60008460020160008573ffffffffffffffffffffffffffffffffffffffff1673ffffffffffffffffffffffffffffffffffffffff16815260200190815260200160002090508060040154831161253e57600080fd5b8281600401819055508181600301819055505050505050565b600060606040518060400160405280600381526020017f3230300000000000000000000000000000000000000000000000000000000000815250905060006040518060400160405280601a81526020017f19457468657265756d205369676e6564204d6573736167653a0a0000000000008152508230600254600360068111156125dd57fe5b8c8c8c8c6040516020016125f9999897969594939291906134b4565b60405160208183030381529060405280519060200120905061261b8185612918565b9250505095945050505050565b60008060001b8360030154148015612644575060008260200151145b8015612654575060008260400151145b1561266257600190506126a2565b816020015182604001518360600151604051602001612683939291906136cf565b6040516020818303038152906040528051906020012083600301541490505b92915050565b60008060008060008060006126bb612b22565b6126c3612b22565b8e600001548260000181815250508e600101548260200181815250508d8260400181815250508c8260600181815250508b600001548160000181815250508b600101548160200181815250508a8160400181815250508981606001818152505061272d8f8d612a0d565b92506127398282612a2e565b9450612745858461232b565b94508483039350612756858b612abc565b809b508196505050612768848e612abc565b809e5081955050508285111561277a57fe5b8284111561278457fe5b898d8587010101831461279357fe5b84848e8c985098509850985050505050509650965096509692505050565b6000826040015114156127c35761280a565b60006127d484846000015184612253565b90506000600b60008381526020019081526020016000209050836060015181600001819055508360400151816001018190555050505b505050565b60008060008060008587511161282c576000945050505050612912565b858701519350602086018701519250604086018701519050600160009054906101000a900473ffffffffffffffffffffffffffffffffffffffff1673ffffffffffffffffffffffffffffffffffffffff1663c1f62946826040518263ffffffff1660e01b815260040161289f91906137a2565b60206040518083038186803b1580156128b757600080fd5b505afa1580156128cb573d6000803e3d6000fd5b505050506040513d601f19601f820116820180604052508101906128ef9190612df4565b915060008214806129005750818411155b1561290a57600092505b829450505050505b92915050565b6000604182511461292857600080fd5b60008060006020850151925060408501519150606085015160001a9050601b8160ff16101561295857601b810190505b601b8160ff16148061296d5750601c8160ff16145b61297657600080fd5b6001868285856040516000815260200160405260405161299994939291906137f4565b6020604051602081039080840390855afa1580156129bb573d6000803e3d6000fd5b505050602060405103519350600073ffffffffffffffffffffffffffffffffffffffff168473ffffffffffffffffffffffffffffffffffffffff161415612a0157600080fd5b83935050505092915050565b60008160010154836001015483600001548560000154010303905092915050565b6000806000806000612a4887604001518860600151612ae1565b9350612a5c86604001518760600151612ae1565b925083831015612a6b57600080fd5b8660400151841015612a7957fe5b8560400151831015612a8757fe5b8383039150612a9a828860000151612ae1565b9050612aaa818860200151612abc565b50809150508094505050505092915050565b600080828411612ad157600084819150612ad6565b828403835b915091509250929050565b600080828401905083811015612b17577fffffffffffffffffffffffffffffffffffffffffffffffffffffffffffffffff612b19565b805b91505092915050565b6040518060800160405280600081526020016000815260200160008152602001600081525090565b600081359050612b5981613bd1565b92915050565b600081519050612b6e81613be8565b92915050565b600081359050612b8381613bff565b92915050565b60008083601f840112612b9b57600080fd5b8235905067ffffffffffffffff811115612bb457600080fd5b602083019150836001820283011115612bcc57600080fd5b9250929050565b600082601f830112612be457600080fd5b8135612bf7612bf2826139b6565b613989565b91508082526020830160208301858383011115612c1357600080fd5b612c1e838284613b2c565b50505092915050565b600060808284031215612c3957600080fd5b612c436080613989565b90506000612c5384828501612b4a565b6000830152506020612c6784828501612c9b565b6020830152506040612c7b84828501612c9b565b6040830152506060612c8f84828501612b74565b60608301525092915050565b600081359050612caa81613c16565b92915050565b600081519050612cbf81613c16565b92915050565b600060208284031215612cd757600080fd5b6000612ce584828501612b4a565b91505092915050565b60008060408385031215612d0157600080fd5b6000612d0f85828601612b4a565b9250506020612d2085828601612b4a565b9150509250929050565b600080600060608486031215612d3f57600080fd5b6000612d4d86828701612b4a565b9350506020612d5e86828701612b4a565b9250506040612d6f86828701612c9b565b9150509250925092565b600060208284031215612d8b57600080fd5b6000612d9984828501612b5f565b91505092915050565b600060208284031215612db457600080fd5b6000612dc284828501612b74565b91505092915050565b600060208284031215612ddd57600080fd5b6000612deb84828501612c9b565b91505092915050565b600060208284031215612e0657600080fd5b6000612e1484828501612cb0565b91505092915050565b600080600060608486031215612e3257600080fd5b6000612e4086828701612c9b565b9350506020612e5186828701612b4a565b9250506040612e6286828701612b4a565b9150509250925092565b6000806000806000806000806000806101008b8d031215612e8c57600080fd5b6000612e9a8d828e01612c9b565b9a50506020612eab8d828e01612b4a565b9950506040612ebc8d828e01612b4a565b9850506060612ecd8d828e01612b74565b9750506080612ede8d828e01612c9b565b96505060a0612eef8d828e01612b74565b95505060c08b013567ffffffffffffffff811115612f0c57600080fd5b612f188d828e01612b89565b945094505060e08b013567ffffffffffffffff811115612f3757600080fd5b612f438d828e01612b89565b92509250509295989b9194979a5092959850565b600080600080600080600080610100898b031215612f7457600080fd5b6000612f828b828c01612c9b565b9850506020612f938b828c01612b4a565b9750506040612fa48b828c01612b4a565b9650506060612fb58b828c01612b74565b9550506080612fc68b828c01612c9b565b94505060a0612fd78b828c01612b74565b93505060c089013567ffffffffffffffff811115612ff457600080fd5b6130008b828c01612bd3565b92505060e089013567ffffffffffffffff81111561301d57600080fd5b6130298b828c01612bd3565b9150509295985092959890939650565b6000806000806080858703121561304f57600080fd5b600061305d87828801612c9b565b945050602061306e87828801612b4a565b935050604061307f87828801612b4a565b925050606085013567ffffffffffffffff81111561309c57600080fd5b6130a887828801612bd3565b91505092959194509250565b600080600080608085870312156130ca57600080fd5b60006130d887828801612c9b565b94505060206130e987828801612b4a565b93505060406130fa87828801612c9b565b925050606061310b87828801612b4a565b91505092959194509250565b60008060008060008060008060006101208a8c03121561313657600080fd5b60006131448c828d01612c9b565b99505060206131558c828d01612b4a565b98505060406131668c828d01612c9b565b97505060606131778c828d01612c9b565b96505060806131888c828d01612b74565b95505060a06131998c828d01612b4a565b94505060c06131aa8c828d01612c9b565b93505060e06131bb8c828d01612c9b565b9250506101006131cd8c828d01612b74565b9150509295985092959850929598565b60008060008060008060008060c0898b0312156131f957600080fd5b60006132078b828c01612c9b565b98505060206132188b828c01612b4a565b97505060406132298b828c01612c9b565b965050606061323a8b828c01612c9b565b955050608089013567ffffffffffffffff81111561325757600080fd5b6132638b828c01612b89565b945094505060a089013567ffffffffffffffff81111561328257600080fd5b61328e8b828c01612b89565b92509250509295985092959890939650565b600080600061012084860312156132b657600080fd5b60006132c486828701612c9b565b93505060206132d586828701612c27565b92505060a06132e686828701612c27565b9150509250925092565b6132f981613a9c565b82525050565b61330881613a2a565b82525050565b61331f61331a82613a2a565b613b6e565b82525050565b61332e81613a3c565b82525050565b61333d81613a48565b82525050565b61335461334f82613a48565b613b80565b82525050565b6000613365826139e2565b61336f8185613a03565b935061337f818560208601613b3b565b80840191505092915050565b61339481613aae565b82525050565b6133a381613ad2565b82525050565b6133b281613af6565b82525050565b60006133c3826139f8565b6133cd8185613a1f565b93506133dd818560208601613b3b565b80840191505092915050565b60006133f4826139ed565b6133fe8185613a0e565b935061340e818560208601613b3b565b61341781613ba6565b840191505092915050565b600061342d826139ed565b6134378185613a1f565b9350613447818560208601613b3b565b80840191505092915050565b61345c81613a85565b82525050565b61347361346e82613a85565b613b9c565b82525050565b61348281613a8f565b82525050565b6000613494828561330e565b6014820191506134a4828461330e565b6014820191508190509392505050565b60006134c0828c613422565b91506134cc828b6133b8565b91506134d8828a61330e565b6014820191506134e88289613462565b6020820191506134f88288613462565b6020820191506135088287613462565b602082019150613518828661330e565b6014820191506135288285613462565b6020820191506135388284613462565b6020820191508190509a9950505050505050505050565b600061355b828c613422565b9150613567828b6133b8565b9150613573828a61330e565b6014820191506135838289613462565b6020820191506135938288613462565b6020820191506135a38287613462565b6020820191506135b38286613343565b6020820191506135c38285613462565b6020820191506135d38284613343565b6020820191508190509a9950505050505050505050565b60006135f6828d613422565b9150613602828c6133b8565b915061360e828b61330e565b60148201915061361e828a613462565b60208201915061362e8289613462565b60208201915061363e8288613462565b60208201915061364e8287613343565b60208201915061365e8286613462565b60208201915061366e8285613343565b60208201915061367e828461335a565b91508190509b9a5050505050505050505050565b600061369e8286613462565b6020820191506136ae828561330e565b6014820191506136be828461330e565b601482019150819050949350505050565b60006136db8286613462565b6020820191506136eb8285613462565b6020820191506136fb8284613343565b602082019150819050949350505050565b600060208201905061372160008301846132ff565b92915050565b600060608201905061373c60008301866132f0565b61374960208301856132ff565b6137566040830184613453565b949350505050565b600060408201905061377360008301856132ff565b6137806020830184613453565b9392505050565b600060208201905061379c6000830184613325565b92915050565b60006020820190506137b76000830184613334565b92915050565b60006060820190506137d26000830186613334565b6137df6020830185613453565b6137ec6040830184613453565b949350505050565b60006080820190506138096000830187613334565b6138166020830186613479565b6138236040830185613334565b6138306060830184613334565b95945050505050565b600060208201905061384e600083018461338b565b92915050565b6000602082019050613869600083018461339a565b92915050565b6000602082019050818103600083015261388981846133e9565b905092915050565b60006020820190506138a66000830184613453565b92915050565b60006080820190506138c16000830187613453565b6138ce6020830186613334565b6138db6040830185613453565b6138e86060830184613334565b95945050505050565b60006040820190506139066000830185613453565b61391360208301846133a9565b9392505050565b600060e08201905061392f600083018a613453565b61393c6020830189613453565b6139496040830188613325565b6139566060830187613334565b6139636080830186613453565b61397060a0830185613334565b61397d60c0830184613453565b98975050505050505050565b6000604051905081810181811067ffffffffffffffff821117156139ac57600080fd5b8060405250919050565b600067ffffffffffffffff8211156139cd57600080fd5b601f19601f8301169050602081019050919050565b600081519050919050565b600081519050919050565b600081519050919050565b600081905092915050565b600082825260208201905092915050565b600081905092915050565b6000613a3582613a65565b9050919050565b60008115159050919050565b6000819050919050565b6000819050613a6082613bc4565b919050565b600073ffffffffffffffffffffffffffffffffffffffff82169050919050565b6000819050919050565b600060ff82169050919050565b6000613aa782613b08565b9050919050565b6000613ab982613ac0565b9050919050565b6000613acb82613a65565b9050919050565b6000613add82613ae4565b9050919050565b6000613aef82613a65565b9050919050565b6000613b0182613a52565b9050919050565b6000613b1382613b1a565b9050919050565b6000613b2582613a65565b9050919050565b82818337600083830152505050565b60005b83811015613b59578082015181840152602081019050613b3e565b83811115613b68576000848401525b50505050565b6000613b7982613b8a565b9050919050565b6000819050919050565b6000613b9582613bb7565b9050919050565b6000819050919050565b6000601f19601f8301169050919050565b60008160601b9050919050565b60058110613bce57fe5b50565b613bda81613a2a565b8114613be557600080fd5b50565b613bf181613a3c565b8114613bfc57600080fd5b50565b613c0881613a48565b8114613c1357600080fd5b50565b613c1f81613a85565b8114613c2a57600080fd5b5056fea26469706673582212205910717457fd4b36cbfd10d4bfb8a0cd5aa223e043610bbf2d7c19121125983d64736f6c63430006040033",
  "compiler": {
    "name": "solc",
    "version": "0.6.4+commit.1dca32f3.Emscripten.clang",
    "optimizer": {
      "enabled": false,
      "runs": 200
    },
    "evmVersion": "petersburg"
  }
}