{
  "fileName": "Utils.sol",
  "contractName": "Utils",
  "source": "pragma solidity 0.6.4;\n\n/// @title Utils\n/// @notice Utils contract for various helpers used by the Raiden Network smart\n/// contracts.\ncontract Utils {\n    enum MessageTypeId {\n        None,\n        BalanceProof,\n        BalanceProofUpdate,\n        Withdraw,\n        CooperativeSettle,\n        IOU,\n        MSReward\n    }\n\n    /// @notice Check if a contract exists\n    /// @param contract_address The address to check whether a contract is\n    /// deployed or not\n    /// @return True if a contract exists, false otherwise\n    function contractExists(address contract_address) public view returns (bool) {\n        uint size;\n\n        assembly { // solium-disable-line security/no-inline-assembly\n            size := extcodesize(contract_address)\n        }\n\n        return size > 0;\n    }\n}",
  "sourcePath": "contracts/Utils.sol",
  "abi": [
    {
      "inputs": [
        {
          "internalType": "address",
          "name": "contract_address",
          "type": "address"
        }
      ],
      "name": "contractExists",
      "outputs": [
        {
          "internalType": "bool",
          "name": "",
          "type": "bool"
        }
      ],
      "stateMutability": "view",
      "type": "function"
    }
  ],
  "bytecode": "0x608060405234801561001057600080fd5b5060cf8061001f6000396000f3fe6080604052348015600f57600080fd5b506004361060285760003560e01c80637709bc7814602d575b600080fd5b606c60048036036020811015604157600080fd5b81019080803573ffffffffffffffffffffffffffffffffffffffff1690602001909291905050506086565b604051808215151515815260200191505060405180910390f35b600080823b90506000811191505091905056fea2646970667358221220cc3fb561c9fb934bea377e70b5fb07b2bba8669d545b8dab2ba5fa5f7df6273b64736f6c63430006040033",
  "compiler": {
    "name": "solc",
    "version": "0.6.4+commit.1dca32f3.Emscripten.clang",
    "optimizer": {
      "enabled": false,
      "runs": 200
    },
    "evmVersion": "petersburg"
  }
}